8=FIX.4.2|9=0225|35=S|49=FIXPROV|56=TRGT|34=1579321|52=20161230-11:05:36.052|115=TRGT|142=MRS|55=ZAR/JPY|60=20161230-11:05:36.052|63=0|64=20170105|117=d20052s3866|131=1276|132=8.525|133=8.547|134=1000000|135=1000000|303=2|537=1|11325=0|10=087|
8=FIX.4.2|9=0229|35=S|49=FIXPROV|56=TRGT|34=1579322|52=20161230-11:05:36.094|115=TRGT|142=MRS|55=GBP/CAD|60=20161230-11:05:36.090|63=0|64=20170104|117=d31282s3858|131=1263|132=1.65671|133=1.65804|134=1000000|135=1000000|303=2|537=1|11325=0|10=238|
8=FIX.4.2|9=0227|35=S|49=FIXPROV|56=TRGT|34=1579323|52=20161230-11:05:36.094|115=TRGT|142=MRS|55=CAD/JPY|60=20161230-11:05:36.090|63=0|64=20170105|117=d31529s3872|131=1264|132=86.655|133=86.718|134=1000000|135=1000000|303=2|537=1|11325=0|10=179|
8=FIX.4.2|9=0229|35=S|49=FIXPROV|56=TRGT|34=1579324|52=20161230-11:05:36.095|115=TRGT|142=MRS|55=AUD/CAD|60=20161230-11:05:36.091|63=0|64=20170104|117=d28086s3879|131=1717|132=0.97371|133=0.97442|134=1000000|135=1000000|303=2|537=1|11325=0|10=005|
8=FIX.4.2|9=0227|35=S|49=FIXPROV|56=TRGT|34=1579325|52=20161230-11:05:36.115|115=TRGT|142=MRS|55=EUR/HKD|60=20161230-11:05:36.113|63=0|64=20170104|117=d30799s3862|131=1253|132=8.1763|133=8.1774|134=1000000|135=1000000|303=2|537=1|11325=0|10=175|
8=FIX.4.2|9=0226|35=S|49=FIXPROV|56=TRGT|34=1579326|52=20161230-11:05:36.116|115=TRGT|142=MRS|55=EUR/ILS|60=20161230-11:05:36.114|63=0|64=20170103|117=d17858s3864|131=1255|132=4.039|133=4.0554|134=1000000|135=1000000|303=2|537=1|11325=0|10=132|
8=FIX.4.2|9=0229|35=S|49=FIXPROV|56=TRGT|34=1579327|52=20161230-11:05:36.116|115=TRGT|142=MRS|55=USD/DKK|60=20161230-11:05:36.114|63=0|64=20170103|117=d35237s3860|131=1258|132=7.05119|133=7.05249|134=1000000|135=1000000|303=2|537=1|11325=0|10=016|
8=FIX.4.2|9=0227|35=S|49=FIXPROV|56=TRGT|34=1579328|52=20161230-11:05:36.116|115=TRGT|142=MRS|55=USD/SEK|60=20161230-11:05:36.114|63=0|64=20170103|117=d29311s3848|131=1245|132=9.0763|133=9.0807|134=1000000|135=1000000|303=2|537=1|11325=0|10=181|
8=FIX.4.2|9=0229|35=S|49=FIXPROV|56=TRGT|34=1579329|52=20161230-11:05:36.124|115=TRGT|142=MRS|55=EUR/NZD|60=20161230-11:05:36.114|63=0|64=20170105|117=d36671s3840|131=1225|132=1.51516|133=1.51598|134=1000000|135=1000000|303=2|537=1|11325=0|10=030|
8=FIX.4.2|9=0227|35=S|49=FIXPROV|56=TRGT|34=1579330|52=20161230-11:05:36.124|115=TRGT|142=MRS|55=EUR/AUD|60=20161230-11:05:36.114|63=0|64=20170104|117=d35891s3845|131=1217|132=1.45857|133=1.459|134=1000000|135=1000000|303=2|537=1|11325=0|10=171|
8=FIX.4.2|9=0227|35=S|49=FIXPROV|56=TRGT|34=1579331|52=20161230-11:05:36.125|115=TRGT|142=MRS|55=USD/NOK|60=20161230-11:05:36.115|63=0|64=20170103|117=d27092s3850|131=1243|132=8.6133|133=8.6214|134=1000000|135=1000000|303=2|537=1|11325=0|10=169|
8=FIX.4.2|9=0229|35=S|49=FIXPROV|56=TRGT|34=1579332|52=20161230-11:05:36.125|115=TRGT|142=MRS|55=EUR/MXN|60=20161230-11:05:36.115|63=0|64=20170104|117=d33483s3844|131=1223|132=21.8397|133=21.8613|134=1000000|135=1000000|303=2|537=1|11325=0|10=035|
8=FIX.4.2|9=0229|35=S|49=FIXPROV|56=TRGT|34=1579333|52=20161230-11:05:36.125|115=TRGT|142=MRS|55=GBP/SEK|60=20161230-11:05:36.116|63=0|64=20170104|117=d35689s3851|131=1236|132=11.1595|133=11.1681|134=1000000|135=1000000|303=2|537=1|11325=0|10=003|
8=FIX.4.2|9=0229|35=S|49=FIXPROV|56=TRGT|34=1579334|52=20161230-11:05:36.125|115=TRGT|142=MRS|55=EUR/SGD|60=20161230-11:05:36.116|63=0|64=20170104|117=d34192s3837|131=1228|132=1.52239|133=1.52318|134=1000000|135=1000000|303=2|537=1|11325=0|10=013|
8=FIX.4.2|9=0229|35=S|49=FIXPROV|56=TRGT|34=1579335|52=20161230-11:05:36.125|115=TRGT|142=MRS|55=GBP/NOK|60=20161230-11:05:36.116|63=0|64=20170104|117=d34413s3854|131=1234|132=10.5913|133=10.6042|134=1000000|135=1000000|303=2|537=1|11325=0|10=243|
8=FIX.4.2|9=0229|35=S|49=FIXPROV|56=TRGT|34=1579336|52=20161230-11:05:36.125|115=TRGT|142=MRS|55=CHF/JPY|60=20161230-11:05:36.117|63=0|64=20170105|117=d37840s3873|131=1265|132=114.434|133=114.888|134=1000000|135=1000000|303=2|537=1|11325=0|10=020|
8=FIX.4.2|9=0227|35=S|49=FIXPROV|56=TRGT|34=1579337|52=20161230-11:05:36.134|115=TRGT|142=MRS|55=EUR/NOK|60=20161230-11:05:36.134|63=0|64=20170103|117=d13804s3831|131=1224|132=9.0806|133=9.0894|134=1000000|135=1000000|303=2|537=1|11325=0|10=181|
8=FIX.4.2|9=0227|35=S|49=FIXPROV|56=TRGT|34=1579338|52=20161230-11:05:36.149|115=TRGT|142=MRS|55=NOK/JPY|60=20161230-11:05:36.149|63=0|64=20170105|117=d29373s3875|131=1267|132=13.549|133=13.566|134=1000000|135=1000000|303=2|537=1|11325=0|10=216|
8=FIX.4.2|9=0229|35=S|49=FIXPROV|56=TRGT|34=1579339|52=20161230-11:05:36.234|115=TRGT|142=MRS|55=EUR/JPY|60=20161230-11:05:36.234|63=0|64=20170105|117=d39529s3843|131=1222|132=123.173|133=123.201|134=1000000|135=1000000|303=2|537=1|11325=0|10=026|
8=FIX.4.2|9=0229|35=S|49=FIXPROV|56=TRGT|34=1579340|52=20161230-11:05:36.254|115=TRGT|142=MRS|55=EUR/ZAR|60=20161230-11:05:36.252|63=0|64=20170104|117=d31231s3839|131=1231|132=14.4124|133=14.4446|134=1000000|135=1000000|303=2|537=1|11325=0|10=013|
8=FIX.4.2|9=0229|35=S|49=FIXPROV|56=TRGT|34=1579341|52=20161230-11:05:36.367|115=TRGT|142=MRS|55=GBP/ZAR|60=20161230-11:05:36.366|63=0|64=20170104|117=d30088s3861|131=1259|132=16.8087|133=16.8495|134=1000000|135=1000000|303=2|537=1|11325=0|10=044|
8=FIX.4.2|9=0228|35=S|49=FIXPROV|56=TRGT|34=1579342|52=20161230-11:05:36.603|115=TRGT|142=MRS|55=EUR/CAD|60=20161230-11:05:36.603|63=0|64=20170103|117=d33758s3846|131=1218|132=1.4206|133=1.42092|134=1000000|135=1000000|303=2|537=1|11325=0|10=193|
8=FIX.4.2|9=0228|35=S|49=FIXPROV|56=TRGT|34=1579343|52=20161230-11:05:36.669|115=TRGT|142=MRS|55=USD/RUB|60=20161230-11:05:36.667|63=0|64=20170109|117=d9695s3863|131=1254|132=61.5109|133=61.6109|134=1000000|135=1000000|303=2|537=0|11325=0|10=014|
8=FIX.4.2|9=0229|35=S|49=FIXPROV|56=TRGT|34=1579344|52=20161230-11:05:36.751|115=TRGT|142=MRS|55=USD/TRY|60=20161230-11:05:36.751|63=0|64=20170103|117=d19156s3821|131=1247|132=3.52302|133=3.52964|134=1000000|135=1000000|303=2|537=1|11325=0|10=055|
8=FIX.4.2|9=0229|35=S|49=FIXPROV|56=TRGT|34=1579345|52=20161230-11:05:36.752|115=TRGT|142=MRS|55=EUR/TRY|60=20161230-11:05:36.751|63=0|64=20170103|117=d34660s3838|131=1229|132=3.71433|133=3.72128|134=1000000|135=1000000|303=2|537=1|11325=0|10=062|
8=FIX.4.2|9=0227|35=S|49=FIXPROV|56=TRGT|34=1579346|52=20161230-11:05:36.752|115=TRGT|142=MRS|55=TRY/JPY|60=20161230-11:05:36.751|63=0|64=20170105|117=d30836s3871|131=1270|132=33.077|133=33.149|134=1000000|135=1000000|303=2|537=1|11325=0|10=220|
8=FIX.4.2|9=0229|35=S|49=FIXPROV|56=TRGT|34=1579347|52=20161230-11:05:36.755|115=TRGT|142=MRS|55=GBP/TRY|60=20161230-11:05:36.752|63=0|64=20170104|117=d34833s3870|131=1269|132=4.33324|133=4.34236|134=1000000|135=1000000|303=2|537=1|11325=0|10=049|
8=FIX.4.2|9=0228|35=S|49=FIXPROV|56=TRGT|34=1579348|52=20161230-11:05:36.837|115=TRGT|142=MRS|55=AUD/USD|60=20161230-11:05:36.837|63=0|64=20170104|117=d24749s3830|131=1216|132=0.72274|133=0.7229|134=1000000|135=1000000|303=2|537=1|11325=0|10=238|
8=FIX.4.2|9=0227|35=S|49=FIXPROV|56=TRGT|34=1579349|52=20161230-11:05:36.837|115=TRGT|142=MRS|55=AUD/JPY|60=20161230-11:05:36.837|63=0|64=20170105|117=d33888s3857|131=1262|132=84.402|133=84.462|134=1000000|135=1000000|303=2|537=1|11325=0|10=212|
8=FIX.4.2|9=0229|35=S|49=FIXPROV|56=TRGT|34=1579350|52=20161230-11:05:36.842|115=TRGT|142=MRS|55=GBP/AUD|60=20161230-11:05:36.838|63=0|64=20170104|117=d34792s3852|131=1232|132=1.70114|133=1.70189|134=1000000|135=1000000|303=2|537=1|11325=0|10=001|
8=FIX.4.2|9=0229|35=S|49=FIXPROV|56=TRGT|34=1579351|52=20161230-11:05:36.842|115=TRGT|142=MRS|55=GBP/JPY|60=20161230-11:05:36.838|63=0|64=20170105|117=d38441s3856|131=1261|132=143.651|133=143.715|134=1000000|135=1000000|303=2|537=1|11325=0|10=030|
8=FIX.4.2|9=0229|35=S|49=FIXPROV|56=TRGT|34=1579352|52=20161230-11:05:36.842|115=TRGT|142=MRS|55=GBP/SGD|60=20161230-11:05:36.838|63=0|64=20170104|117=d33045s3878|131=1283|132=1.77554|133=1.77669|134=1000000|135=1000000|303=2|537=1|11325=0|10=036|
8=FIX.4.2|9=0229|35=S|49=FIXPROV|56=TRGT|34=1579353|52=20161230-11:05:36.842|115=TRGT|142=MRS|55=GBP/USD|60=20161230-11:05:36.838|63=0|64=20170104|117=d30365s3834|131=1237|132=1.22973|133=1.23003|134=1000000|135=1000000|303=2|537=1|11325=0|10=012|
8=FIX.4.2|9=0229|35=S|49=FIXPROV|56=TRGT|34=1579354|52=20161230-11:05:36.842|115=TRGT|142=MRS|55=GBP/MXN|60=20161230-11:05:36.839|63=0|64=20170104|117=d31573s3867|131=1274|132=25.4698|133=25.5015|134=1000000|135=1000000|303=2|537=1|11325=0|10=049|
8=FIX.4.2|9=0229|35=S|49=FIXPROV|56=TRGT|34=1579355|52=20161230-11:05:36.843|115=TRGT|142=MRS|55=EUR/CHF|60=20161230-11:05:36.839|63=0|64=20170104|117=d25692s3826|131=1219|132=1.07424|133=1.07452|134=1000000|135=1000000|303=2|537=1|11325=0|10=020|
8=FIX.4.2|9=0229|35=S|49=FIXPROV|56=TRGT|34=1579356|52=20161230-11:05:36.843|115=TRGT|142=MRS|55=GBP/NZD|60=20161230-11:05:36.839|63=0|64=20170105|117=d35017s3855|131=1235|132=1.76713|133=1.76838|134=1000000|135=1000000|303=2|537=1|11325=0|10=043|
8=FIX.4.2|9=0229|35=S|49=FIXPROV|56=TRGT|34=1579357|52=20161230-11:05:36.843|115=TRGT|142=MRS|55=EUR/USD|60=20161230-11:05:36.841|63=0|64=20170103|117=d35150s3820|131=1230|132=1.05424|133=1.05433|134=1000000|135=1000000|303=2|537=1|11325=0|10=013|
8=FIX.4.2|9=0227|35=S|49=FIXPROV|56=TRGT|34=1579358|52=20161230-11:05:36.843|115=TRGT|142=MRS|55=EUR/HKD|60=20161230-11:05:36.841|63=0|64=20170104|117=d30800s3862|131=1253|132=8.1762|133=8.1773|134=1000000|135=1000000|303=2|537=1|11325=0|10=178|
8=FIX.4.2|9=0227|35=S|49=FIXPROV|56=TRGT|34=1579359|52=20161230-11:05:36.849|115=TRGT|142=MRS|55=NZD/JPY|60=20161230-11:05:36.842|63=0|64=20170105|117=d31049s3869|131=1268|132=81.252|133=81.305|134=1000000|135=1000000|303=2|537=1|11325=0|10=219|
8=FIX.4.2|9=0229|35=S|49=FIXPROV|56=TRGT|34=1579360|52=20161230-11:05:36.849|115=TRGT|142=MRS|55=NZD/USD|60=20161230-11:05:36.842|63=0|64=20170105|117=d21165s3829|131=1238|132=0.69562|133=0.69597|134=1000000|135=1000000|303=2|537=1|11325=0|10=066|
8=FIX.4.2|9=0229|35=S|49=FIXPROV|56=TRGT|34=1579361|52=20161230-11:05:36.866|115=TRGT|142=MRS|55=USD/DKK|60=20161230-11:05:36.861|63=0|64=20170103|117=d35238s3860|131=1258|132=7.05125|133=7.05255|134=1000000|135=1000000|303=2|537=1|11325=0|10=030|
8=FIX.4.2|9=0229|35=S|49=FIXPROV|56=TRGT|34=1579362|52=20161230-11:05:36.866|115=TRGT|142=MRS|55=USD/CHF|60=20161230-11:05:36.862|63=0|64=20170104|117=d28018s3849|131=1240|132=1.01881|133=1.01908|134=1000000|135=1000000|303=2|537=1|11325=0|10=014|
8=FIX.4.2|9=0229|35=S|49=FIXPROV|56=TRGT|34=1579363|52=20161230-11:05:36.866|115=TRGT|142=MRS|55=EUR/JPY|60=20161230-11:05:36.863|63=0|64=20170105|117=d39530s3843|131=1222|132=123.169|133=123.197|134=1000000|135=1000000|303=2|537=1|11325=0|10=053|
8=FIX.4.2|9=0229|35=S|49=FIXPROV|56=TRGT|34=1579364|52=20161230-11:05:36.866|115=TRGT|142=MRS|55=USD/JPY|60=20161230-11:05:36.863|63=0|64=20170105|117=d36723s3819|131=1241|132=116.802|133=116.827|134=1000000|135=1000000|303=2|537=1|11325=0|10=057|
8=FIX.4.2|9=0226|35=S|49=FIXPROV|56=TRGT|34=1579365|52=20161230-11:05:36.866|115=TRGT|142=MRS|55=SGD/JPY|60=20161230-11:05:36.863|63=0|64=20170105|117=d28917s3876|131=1284|132=80.857|133=80.92|134=1000000|135=1000000|303=2|537=1|11325=0|10=173|
8=FIX.4.2|9=0229|35=S|49=FIXPROV|56=TRGT|34=1579366|52=20161230-11:05:36.891|115=TRGT|142=MRS|55=EUR/GBP|60=20161230-11:05:36.890|63=0|64=20170104|117=d34756s3841|131=1220|132=0.85726|133=0.85739|134=1000000|135=1000000|303=2|537=1|11325=0|10=043|
8=FIX.4.2|9=0229|35=S|49=FIXPROV|56=TRGT|34=1579367|52=20161230-11:05:36.913|115=TRGT|142=MRS|55=USD/SGD|60=20161230-11:05:36.912|63=0|64=20170104|117=d18000s3824|131=1246|132=1.44376|133=1.44443|134=1000000|135=1000000|303=2|537=1|11325=0|10=017|
8=FIX.4.2|9=0228|35=S|49=FIXPROV|56=TRGT|34=1579368|52=20161230-11:05:36.913|115=TRGT|142=MRS|55=EUR/SGD|60=20161230-11:05:36.912|63=0|64=20170104|117=d34193s3837|131=1228|132=1.52231|133=1.5231|134=1000000|135=1000000|303=2|537=1|11325=0|10=221|
8=FIX.4.2|9=0228|35=S|49=FIXPROV|56=TRGT|34=1579369|52=20161230-11:05:36.978|115=TRGT|142=MRS|55=GBP/CHF|60=20161230-11:05:36.978|63=0|64=20170104|117=d34692s3853|131=1233|132=1.25292|133=1.2535|134=1000000|135=1000000|303=2|537=1|11325=0|10=222|
8=FIX.4.2|9=0229|35=S|49=FIXPROV|56=TRGT|34=1579370|52=20161230-11:05:37.022|115=TRGT|142=MRS|55=EUR/USD|60=20161230-11:05:37.022|63=0|64=20170103|117=d35151s3820|131=1230|132=1.05422|133=1.05431|134=1000000|135=1000000|303=2|537=1|11325=0|10=243|
8=FIX.4.2|9=0229|35=S|49=FIXPROV|56=TRGT|34=1579371|52=20161230-11:05:37.038|115=TRGT|142=MRS|55=EUR/CAD|60=20161230-11:05:37.037|63=0|64=20170103|117=d33759s3846|131=1218|132=1.42056|133=1.42088|134=1000000|135=1000000|303=2|537=1|11325=0|10=004|
8=FIX.4.2|9=0227|35=S|49=FIXPROV|56=TRGT|34=1579372|52=20161230-11:05:37.090|115=TRGT|142=MRS|55=CAD/JPY|60=20161230-11:05:37.090|63=0|64=20170105|117=d31530s3872|131=1264|132=86.655|133=86.718|134=1000000|135=1000000|303=2|537=1|11325=0|10=173|
8=FIX.4.2|9=0228|35=S|49=FIXPROV|56=TRGT|34=1579373|52=20161230-11:05:37.091|115=TRGT|142=MRS|55=GBP/CAD|60=20161230-11:05:37.091|63=0|64=20170104|117=d31283s3858|131=1263|132=1.6567|133=1.65803|134=1000000|135=1000000|303=2|537=1|11325=0|10=194|
8=FIX.4.2|9=0228|35=S|49=FIXPROV|56=TRGT|34=1579374|52=20161230-11:05:37.093|115=TRGT|142=MRS|55=AUD/CAD|60=20161230-11:05:37.091|63=0|64=20170104|117=d28087s3879|131=1717|132=0.9737|133=0.97441|134=1000000|135=1000000|303=2|537=1|11325=0|10=216|
8=FIX.4.2|9=0226|35=S|49=FIXPROV|56=TRGT|34=1579375|52=20161230-11:05:37.114|115=TRGT|142=MRS|55=USD/SEK|60=20161230-11:05:37.114|63=0|64=20170103|117=d29312s3848|131=1245|132=9.0766|133=9.081|134=1000000|135=1000000|303=2|537=1|11325=0|10=132|
8=FIX.4.2|9=0227|35=S|49=FIXPROV|56=TRGT|34=1579376|52=20161230-11:05:37.115|115=TRGT|142=MRS|55=EUR/ILS|60=20161230-11:05:37.114|63=0|64=20170103|117=d17859s3864|131=1255|132=4.0389|133=4.0553|134=1000000|135=1000000|303=2|537=1|11325=0|10=195|
8=FIX.4.2|9=0229|35=S|49=FIXPROV|56=TRGT|34=1579377|52=20161230-11:05:37.115|115=TRGT|142=MRS|55=EUR/AUD|60=20161230-11:05:37.114|63=0|64=20170104|117=d35892s3845|131=1217|132=1.45855|133=1.45898|134=1000000|135=1000000|303=2|537=1|11325=0|10=041|
8=FIX.4.2|9=0226|35=S|49=FIXPROV|56=TRGT|34=1579378|52=20161230-11:05:37.115|115=TRGT|142=MRS|55=USD/HUF|60=20161230-11:05:37.114|63=0|64=20170103|117=d26765s3832|131=1250|132=294.32|133=294.6|134=1000000|135=1000000|303=2|537=1|11325=0|10=129|
8=FIX.4.2|9=0229|35=S|49=FIXPROV|56=TRGT|34=1579379|52=20161230-11:05:37.115|115=TRGT|142=MRS|55=EUR/NZD|60=20161230-11:05:37.114|63=0|64=20170105|117=d36672s3840|131=1225|132=1.51514|133=1.51596|134=1000000|135=1000000|303=2|537=1|11325=0|10=034|
8=FIX.4.2|9=0229|35=S|49=FIXPROV|56=TRGT|34=1579380|52=20161230-11:05:37.116|115=TRGT|142=MRS|55=EUR/MXN|60=20161230-11:05:37.114|63=0|64=20170104|117=d33484s3844|131=1223|132=21.8391|133=21.8607|134=1000000|135=1000000|303=2|537=1|11325=0|10=037|
8=FIX.4.2|9=0229|35=S|49=FIXPROV|56=TRGT|34=1579381|52=20161230-11:05:37.116|115=TRGT|142=MRS|55=GBP/NOK|60=20161230-11:05:37.114|63=0|64=20170104|117=d34414s3854|131=1234|132=10.5912|133=10.6041|134=1000000|135=1000000|303=2|537=1|11325=0|10=243|
8=FIX.4.2|9=0226|35=S|49=FIXPROV|56=TRGT|34=1579382|52=20161230-11:05:37.118|115=TRGT|142=MRS|55=USD/PMRS|60=20161230-11:05:37.116|63=0|64=20170103|117=d20869s3847|131=1244|132=4.197|133=4.2022|134=1000000|135=1000000|303=2|537=1|11325=0|10=134|
8=FIX.4.2|9=0229|35=S|49=FIXPROV|56=TRGT|34=1579383|52=20161230-11:05:37.118|115=TRGT|142=MRS|55=GBP/SEK|60=20161230-11:05:37.116|63=0|64=20170104|117=d35690s3851|131=1236|132=11.1597|133=11.1683|134=1000000|135=1000000|303=2|537=1|11325=0|10=008|
8=FIX.4.2|9=0229|35=S|49=FIXPROV|56=TRGT|34=1579384|52=20161230-11:05:37.118|115=TRGT|142=MRS|55=CHF/JPY|60=20161230-11:05:37.116|63=0|64=20170105|117=d37841s3873|131=1265|132=114.428|133=114.882|134=1000000|135=1000000|303=2|537=1|11325=0|10=024|
8=FIX.4.2|9=0227|35=S|49=FIXPROV|56=TRGT|34=1579385|52=20161230-11:05:37.119|115=TRGT|142=MRS|55=USD/CZK|60=20161230-11:05:37.117|63=0|64=20170103|117=d14803s3877|131=1280|132=25.611|133=25.634|134=1000000|135=1000000|303=2|537=1|11325=0|10=184|
8=FIX.4.2|9=0227|35=S|49=FIXPROV|56=TRGT|34=1579386|52=20161230-11:05:37.149|115=TRGT|142=MRS|55=NOK/JPY|60=20161230-11:05:37.149|63=0|64=20170105|117=d29374s3875|131=1267|132=13.548|133=13.565|134=1000000|135=1000000|303=2|537=1|11325=0|10=220|
8=FIX.4.2|9=0227|35=S|49=FIXPROV|56=TRGT|34=1579387|52=20161230-11:05:37.215|115=TRGT|142=MRS|55=EUR/HKD|60=20161230-11:05:37.215|63=0|64=20170104|117=d30801s3862|131=1253|132=8.1761|133=8.1772|134=1000000|135=1000000|303=2|537=1|11325=0|10=169|
8=FIX.4.2|9=0229|35=S|49=FIXPROV|56=TRGT|34=1579388|52=20161230-11:05:37.241|115=TRGT|142=MRS|55=USD/CHF|60=20161230-11:05:37.241|63=0|64=20170104|117=d28019s3849|131=1240|132=1.01888|133=1.01908|134=1000000|135=1000000|303=2|537=1|11325=0|10=010|
8=FIX.4.2|9=0229|35=S|49=FIXPROV|56=TRGT|34=1579389|52=20161230-11:05:37.248|115=TRGT|142=MRS|55=EUR/GBP|60=20161230-11:05:37.248|63=0|64=20170104|117=d34757s3841|131=1220|132=0.85728|133=0.85741|134=1000000|135=1000000|303=2|537=1|11325=0|10=039|
8=FIX.4.2|9=0227|35=S|49=FIXPROV|56=TRGT|34=1579390|52=20161230-11:05:37.251|115=TRGT|142=MRS|55=EUR/NOK|60=20161230-11:05:37.251|63=0|64=20170103|117=d13805s3831|131=1224|132=9.0808|133=9.0896|134=1000000|135=1000000|303=2|537=1|11325=0|10=187|
8=FIX.4.2|9=0228|35=S|49=FIXPROV|56=TRGT|34=1579391|52=20161230-11:05:37.253|115=TRGT|142=MRS|55=EUR/ZAR|60=20161230-11:05:37.252|63=0|64=20170104|117=d31232s3839|131=1231|132=14.412|133=14.4442|134=1000000|135=1000000|303=2|537=1|11325=0|10=220|
8=FIX.4.2|9=0228|35=S|49=FIXPROV|56=TRGT|34=1579392|52=20161230-11:05:37.261|115=TRGT|142=MRS|55=EUR/CHF|60=20161230-11:05:37.261|63=0|64=20170104|117=d25693s3826|131=1219|132=1.0742|133=1.07467|134=1000000|135=1000000|303=2|537=1|11325=0|10=216|
8=FIX.4.2|9=0228|35=S|49=FIXPROV|56=TRGT|34=1579393|52=20161230-11:05:37.263|115=TRGT|142=MRS|55=USD/ZAR|60=20161230-11:05:37.261|63=0|64=20170104|117=d8758s3835|131=1248|132=13.6693|133=13.6997|134=1000000|135=1000000|303=2|537=1|11325=0|10=020|
8=FIX.4.2|9=0229|35=S|49=FIXPROV|56=TRGT|34=1579394|52=20161230-11:05:37.282|115=TRGT|142=MRS|55=GBP/USD|60=20161230-11:05:37.282|63=0|64=20170104|117=d30366s3834|131=1237|132=1.22967|133=1.22997|134=1000000|135=1000000|303=2|537=1|11325=0|10=035|
8=FIX.4.2|9=0229|35=S|49=FIXPROV|56=TRGT|34=1579395|52=20161230-11:05:37.339|115=TRGT|142=MRS|55=GBP/AUD|60=20161230-11:05:37.338|63=0|64=20170104|117=d34793s3852|131=1232|132=1.70101|133=1.70176|134=1000000|135=1000000|303=2|537=1|11325=0|10=001|
8=FIX.4.2|9=0229|35=S|49=FIXPROV|56=TRGT|34=1579396|52=20161230-11:05:37.339|115=TRGT|142=MRS|55=GBP/JPY|60=20161230-11:05:37.338|63=0|64=20170105|117=d38442s3856|131=1261|132=143.641|133=143.705|134=1000000|135=1000000|303=2|537=1|11325=0|10=036|
8=FIX.4.2|9=0229|35=S|49=FIXPROV|56=TRGT|34=1579397|52=20161230-11:05:37.367|115=TRGT|142=MRS|55=GBP/ZAR|60=20161230-11:05:37.367|63=0|64=20170104|117=d30089s3861|131=1259|132=16.8104|133=16.8512|134=1000000|135=1000000|303=2|537=1|11325=0|10=039|
8=FIX.4.2|9=0229|35=S|49=FIXPROV|56=TRGT|34=1579398|52=20161230-11:05:37.380|115=TRGT|142=MRS|55=USD/CHF|60=20161230-11:05:37.380|63=0|64=20170104|117=d28020s3849|131=1240|132=1.01892|133=1.01912|134=1000000|135=1000000|303=2|537=1|11325=0|10=001|
8=FIX.4.2|9=0226|35=S|49=FIXPROV|56=TRGT|34=1579399|52=20161230-11:05:37.445|115=TRGT|142=MRS|55=EUR/RON|60=20161230-11:05:37.445|63=0|64=20170104|117=d5451s3859|131=1256|132=4.5405|133=4.5411|134=1000000|135=1000000|303=2|537=0|11325=0|10=153|
8=FIX.4.2|9=0229|35=S|49=FIXPROV|56=TRGT|34=1579400|52=20161230-11:05:37.621|115=TRGT|142=MRS|55=USD/DKK|60=20161230-11:05:37.621|63=0|64=20170103|117=d35239s3860|131=1258|132=7.05139|133=7.05269|134=1000000|135=1000000|303=2|537=1|11325=0|10=020|
8=FIX.4.2|9=0228|35=S|49=FIXPROV|56=TRGT|34=1579401|52=20161230-11:05:37.667|115=TRGT|142=MRS|55=USD/RUB|60=20161230-11:05:37.667|63=0|64=20170109|117=d9696s3863|131=1254|132=61.5076|133=61.6076|134=1000000|135=1000000|303=2|537=0|11325=0|10=016|
8=FIX.4.2|9=0229|35=S|49=FIXPROV|56=TRGT|34=1579402|52=20161230-11:05:37.742|115=TRGT|142=MRS|55=EUR/JPY|60=20161230-11:05:37.742|63=0|64=20170105|117=d39531s3843|131=1222|132=123.173|133=123.196|134=1000000|135=1000000|303=2|537=1|11325=0|10=033|
8=FIX.4.2|9=0228|35=S|49=FIXPROV|56=TRGT|34=1579403|52=20161230-11:05:37.747|115=TRGT|142=MRS|55=GBP/NZD|60=20161230-11:05:37.747|63=0|64=20170105|117=d35018s3855|131=1235|132=1.76705|133=1.7683|134=1000000|135=1000000|303=2|537=1|11325=0|10=240|
8=FIX.4.2|9=0229|35=S|49=FIXPROV|56=TRGT|34=1579404|52=20161230-11:05:37.751|115=TRGT|142=MRS|55=EUR/TRY|60=20161230-11:05:37.751|63=0|64=20170103|117=d34661s3838|131=1229|132=3.71422|133=3.72117|134=1000000|135=1000000|303=2|537=1|11325=0|10=056|
8=FIX.4.2|9=0226|35=S|49=FIXPROV|56=TRGT|34=1579405|52=20161230-11:05:37.752|115=TRGT|142=MRS|55=TRY/JPY|60=20161230-11:05:37.752|63=0|64=20170105|117=d30837s3871|131=1270|132=33.078|133=33.15|134=1000000|135=1000000|303=2|537=1|11325=0|10=164|
8=FIX.4.2|9=0228|35=S|49=FIXPROV|56=TRGT|34=1579406|52=20161230-11:05:37.752|115=TRGT|142=MRS|55=GBP/TRY|60=20161230-11:05:37.752|63=0|64=20170104|117=d34834s3870|131=1269|132=4.33298|133=4.3421|134=1000000|135=1000000|303=2|537=1|11325=0|10=254|
8=FIX.4.2|9=0227|35=S|49=FIXPROV|56=TRGT|34=1579407|52=20161230-11:05:37.838|115=TRGT|142=MRS|55=AUD/JPY|60=20161230-11:05:37.837|63=0|64=20170105|117=d33889s3857|131=1262|132=84.404|133=84.464|134=1000000|135=1000000|303=2|537=1|11325=0|10=215|
8=FIX.4.2|9=0229|35=S|49=FIXPROV|56=TRGT|34=1579408|52=20161230-11:05:37.839|115=TRGT|142=MRS|55=GBP/MXN|60=20161230-11:05:37.838|63=0|64=20170104|117=d31574s3867|131=1274|132=25.4685|133=25.5002|134=1000000|135=1000000|303=2|537=1|11325=0|10=049|
8=FIX.4.2|9=0228|35=S|49=FIXPROV|56=TRGT|34=1579409|52=20161230-11:05:37.839|115=TRGT|142=MRS|55=GBP/SGD|60=20161230-11:05:37.838|63=0|64=20170104|117=d33046s3878|131=1283|132=1.77545|133=1.7766|134=1000000|135=1000000|303=2|537=1|11325=0|10=246|
8=FIX.4.2|9=0227|35=S|49=FIXPROV|56=TRGT|34=1579410|52=20161230-11:05:37.842|115=TRGT|142=MRS|55=NZD/JPY|60=20161230-11:05:37.842|63=0|64=20170105|117=d31050s3869|131=1268|132=81.254|133=81.307|134=1000000|135=1000000|303=2|537=1|11325=0|10=198|
8=FIX.4.2|9=0229|35=S|49=FIXPROV|56=TRGT|34=1579411|52=20161230-11:05:37.843|115=TRGT|142=MRS|55=NZD/USD|60=20161230-11:05:37.843|63=0|64=20170105|117=d21166s3829|131=1238|132=0.69563|133=0.69598|134=1000000|135=1000000|303=2|537=1|11325=0|10=063|
8=FIX.4.2|9=0224|35=S|49=FIXPROV|56=TRGT|34=1579412|52=20161230-11:05:37.863|115=TRGT|142=MRS|55=MXN/JPY|60=20161230-11:05:37.863|63=0|64=20170105|117=d25263s3868|131=1275|132=5.633|133=5.64|134=1000000|135=1000000|303=2|537=1|11325=0|10=065|
8=FIX.4.2|9=0227|35=S|49=FIXPROV|56=TRGT|34=1579413|52=20161230-11:05:37.864|115=TRGT|142=MRS|55=SGD/JPY|60=20161230-11:05:37.863|63=0|64=20170105|117=d28918s3876|131=1284|132=80.858|133=80.921|134=1000000|135=1000000|303=2|537=1|11325=0|10=219|
8=FIX.4.2|9=0229|35=S|49=FIXPROV|56=TRGT|34=1579414|52=20161230-11:05:37.864|115=TRGT|142=MRS|55=USD/JPY|60=20161230-11:05:37.863|63=0|64=20170105|117=d36724s3819|131=1241|132=116.804|133=116.829|134=1000000|135=1000000|303=2|537=1|11325=0|10=058|
8=FIX.4.2|9=0229|35=S|49=FIXPROV|56=TRGT|34=1579415|52=20161230-11:05:37.871|115=TRGT|142=MRS|55=EUR/ZAR|60=20161230-11:05:37.870|63=0|64=20170104|117=d31233s3839|131=1231|132=14.4143|133=14.4497|134=1000000|135=1000000|303=2|537=1|11325=0|10=038|
8=FIX.4.2|9=0229|35=S|49=FIXPROV|56=TRGT|34=1579416|52=20161230-11:05:37.915|115=TRGT|142=MRS|55=EUR/SGD|60=20161230-11:05:37.913|63=0|64=20170104|117=d34194s3837|131=1228|132=1.52234|133=1.52313|134=1000000|135=1000000|303=2|537=1|11325=0|10=020|
8=FIX.4.2|9=0228|35=S|49=FIXPROV|56=TRGT|34=1579417|52=20161230-11:05:37.915|115=TRGT|142=MRS|55=USD/SGD|60=20161230-11:05:37.913|63=0|64=20170104|117=d18001s3824|131=1246|132=1.4438|133=1.44447|134=1000000|135=1000000|303=2|537=1|11325=0|10=225|
8=FIX.4.2|9=0229|35=S|49=FIXPROV|56=TRGT|34=1579418|52=20161230-11:05:37.929|115=TRGT|142=MRS|55=EUR/CHF|60=20161230-11:05:37.928|63=0|64=20170104|117=d25694s3826|131=1219|132=1.07429|133=1.07467|134=1000000|135=1000000|303=2|537=1|11325=0|10=039|
8=FIX.4.2|9=0225|35=S|49=FIXPROV|56=TRGT|34=1579419|52=20161230-11:05:37.979|115=TRGT|142=MRS|55=ZAR/JPY|60=20161230-11:05:37.978|63=0|64=20170105|117=d20053s3866|131=1276|132=8.521|133=8.545|134=1000000|135=1000000|303=2|537=1|11325=0|10=127|
8=FIX.4.2|9=0229|35=S|49=FIXPROV|56=TRGT|34=1579420|52=20161230-11:05:37.979|115=TRGT|142=MRS|55=GBP/CHF|60=20161230-11:05:37.978|63=0|64=20170104|117=d34693s3853|131=1233|132=1.25295|133=1.25353|134=1000000|135=1000000|303=2|537=1|11325=0|10=013|
8=FIX.4.2|9=0229|35=S|49=FIXPROV|56=TRGT|34=1579421|52=20161230-11:05:38.013|115=TRGT|142=MRS|55=USD/CHF|60=20161230-11:05:38.013|63=0|64=20170104|117=d28021s3849|131=1240|132=1.01891|133=1.01918|134=1000000|135=1000000|303=2|537=1|11325=0|10=238|
8=FIX.4.2|9=0227|35=S|49=FIXPROV|56=TRGT|34=1579422|52=20161230-11:05:38.091|115=TRGT|142=MRS|55=CAD/JPY|60=20161230-11:05:38.090|63=0|64=20170105|117=d31531s3872|131=1264|132=86.656|133=86.719|134=1000000|135=1000000|303=2|537=1|11325=0|10=175|
8=FIX.4.2|9=0228|35=S|49=FIXPROV|56=TRGT|34=1579423|52=20161230-11:05:38.092|115=TRGT|142=MRS|55=GBP/CAD|60=20161230-11:05:38.091|63=0|64=20170104|117=d31284s3858|131=1263|132=1.6566|133=1.65793|134=1000000|135=1000000|303=2|537=1|11325=0|10=201|
8=FIX.4.2|9=0229|35=S|49=FIXPROV|56=TRGT|34=1579424|52=20161230-11:05:38.114|115=TRGT|142=MRS|55=GBP/JPY|60=20161230-11:05:38.114|63=0|64=20170105|117=d38443s3856|131=1261|132=143.648|133=143.712|134=1000000|135=1000000|303=2|537=1|11325=0|10=019|
8=FIX.4.2|9=0228|35=S|49=FIXPROV|56=TRGT|34=1579425|52=20161230-11:05:38.114|115=TRGT|142=MRS|55=GBP/NOK|60=20161230-11:05:38.114|63=0|64=20170104|117=d34415s3854|131=1234|132=10.5911|133=10.604|134=1000000|135=1000000|303=2|537=1|11325=0|10=192|
8=FIX.4.2|9=0229|35=S|49=FIXPROV|56=TRGT|34=1579426|52=20161230-11:05:38.115|115=TRGT|142=MRS|55=GBP/SEK|60=20161230-11:05:38.114|63=0|64=20170104|117=d35691s3851|131=1236|132=11.1593|133=11.1679|134=1000000|135=1000000|303=2|537=1|11325=0|10=005|
8=FIX.4.2|9=0229|35=S|49=FIXPROV|56=TRGT|34=1579427|52=20161230-11:05:38.115|115=TRGT|142=MRS|55=EUR/AUD|60=20161230-11:05:38.114|63=0|64=20170104|117=d35893s3845|131=1217|132=1.45855|133=1.45898|134=1000000|135=1000000|303=2|537=1|11325=0|10=040|
8=FIX.4.2|9=0229|35=S|49=FIXPROV|56=TRGT|34=1579428|52=20161230-11:05:38.115|115=TRGT|142=MRS|55=EUR/MXN|60=20161230-11:05:38.114|63=0|64=20170104|117=d33485s3844|131=1223|132=21.8391|133=21.8607|134=1000000|135=1000000|303=2|537=1|11325=0|10=042|
8=FIX.4.2|9=0229|35=S|49=FIXPROV|56=TRGT|34=1579429|52=20161230-11:05:38.115|115=TRGT|142=MRS|55=EUR/NZD|60=20161230-11:05:38.114|63=0|64=20170105|117=d36673s3840|131=1225|132=1.51513|133=1.51595|134=1000000|135=1000000|303=2|537=1|11325=0|10=031|
8=FIX.4.2|9=0229|35=S|49=FIXPROV|56=TRGT|34=1579430|52=20161230-11:05:38.117|115=TRGT|142=MRS|55=CHF/JPY|60=20161230-11:05:38.115|63=0|64=20170105|117=d37842s3873|131=1265|132=114.422|133=114.876|134=1000000|135=1000000|303=2|537=1|11325=0|10=014|
8=FIX.4.2|9=0227|35=S|49=FIXPROV|56=TRGT|34=1579431|52=20161230-11:05:38.117|115=TRGT|142=MRS|55=USD/NOK|60=20161230-11:05:38.116|63=0|64=20170103|117=d27093s3850|131=1243|132=8.6135|133=8.6216|134=1000000|135=1000000|303=2|537=1|11325=0|10=181|
8=FIX.4.2|9=0227|35=S|49=FIXPROV|56=TRGT|34=1579432|52=20161230-11:05:38.150|115=TRGT|142=MRS|55=NOK/JPY|60=20161230-11:05:38.150|63=0|64=20170105|117=d29375s3875|131=1267|132=13.548|133=13.565|134=1000000|135=1000000|303=2|537=1|11325=0|10=199|
8=FIX.4.2|9=0228|35=S|49=FIXPROV|56=TRGT|34=1579433|52=20161230-11:05:38.162|115=TRGT|142=MRS|55=USD/ZAR|60=20161230-11:05:38.162|63=0|64=20170104|117=d8759s3835|131=1248|132=13.6702|133=13.7037|134=1000000|135=1000000|303=2|537=1|11325=0|10=249|
8=FIX.4.2|9=0229|35=S|49=FIXPROV|56=TRGT|34=1579434|52=20161230-11:05:38.283|115=TRGT|142=MRS|55=GBP/USD|60=20161230-11:05:38.283|63=0|64=20170104|117=d30367s3834|131=1237|132=1.22969|133=1.22999|134=1000000|135=1000000|303=2|537=1|11325=0|10=039|
8=FIX.4.2|9=0229|35=S|49=FIXPROV|56=TRGT|34=1579435|52=20161230-11:05:38.339|115=TRGT|142=MRS|55=GBP/AUD|60=20161230-11:05:38.338|63=0|64=20170104|117=d34794s3852|131=1232|132=1.70106|133=1.70181|134=1000000|135=1000000|303=2|537=1|11325=0|10=000|
8=FIX.4.2|9=0228|35=S|49=FIXPROV|56=TRGT|34=1579436|52=20161230-11:05:38.368|115=TRGT|142=MRS|55=GBP/ZAR|60=20161230-11:05:38.368|63=0|64=20170104|117=d30090s3861|131=1259|132=16.8105|133=16.855|134=1000000|135=1000000|303=2|537=1|11325=0|10=239|
8=FIX.4.2|9=0229|35=S|49=FIXPROV|56=TRGT|34=1579437|52=20161230-11:05:38.505|115=TRGT|142=MRS|55=EUR/USD|60=20161230-11:05:38.505|63=0|64=20170103|117=d35152s3820|131=1230|132=1.05424|133=1.05438|134=1000000|135=1000000|303=2|537=1|11325=0|10=015|
8=FIX.4.2|9=0229|35=S|49=FIXPROV|56=TRGT|34=1579438|52=20161230-11:05:38.506|115=TRGT|142=MRS|55=EUR/AUD|60=20161230-11:05:38.505|63=0|64=20170104|117=d35894s3845|131=1217|132=1.45858|133=1.45907|134=1000000|135=1000000|303=2|537=1|11325=0|10=045|
8=FIX.4.2|9=0227|35=S|49=FIXPROV|56=TRGT|34=1579439|52=20161230-11:05:38.506|115=TRGT|142=MRS|55=EUR/HKD|60=20161230-11:05:38.505|63=0|64=20170104|117=d30802s3862|131=1253|132=8.1762|133=8.1777|134=1000000|135=1000000|303=2|537=1|11325=0|10=181|
8=FIX.4.2|9=0229|35=S|49=FIXPROV|56=TRGT|34=1579440|52=20161230-11:05:38.506|115=TRGT|142=MRS|55=USD/DKK|60=20161230-11:05:38.505|63=0|64=20170103|117=d35240s3860|131=1258|132=7.05094|133=7.05258|134=1000000|135=1000000|303=2|537=1|11325=0|10=019|
8=FIX.4.2|9=0229|35=S|49=FIXPROV|56=TRGT|34=1579441|52=20161230-11:05:38.506|115=TRGT|142=MRS|55=EUR/CAD|60=20161230-11:05:38.505|63=0|64=20170103|117=d33760s3846|131=1218|132=1.42059|133=1.42097|134=1000000|135=1000000|303=2|537=1|11325=0|10=255|
8=FIX.4.2|9=0227|35=S|49=FIXPROV|56=TRGT|34=1579442|52=20161230-11:05:38.507|115=TRGT|142=MRS|55=EUR/HKD|60=20161230-11:05:38.507|63=0|64=20170104|117=d30803s3862|131=1253|132=8.1762|133=8.1772|134=1000000|135=1000000|303=2|537=1|11325=0|10=174|
8=FIX.4.2|9=0229|35=S|49=FIXPROV|56=TRGT|34=1579443|52=20161230-11:05:38.507|115=TRGT|142=MRS|55=EUR/USD|60=20161230-11:05:38.507|63=0|64=20170103|117=d35153s3820|131=1230|132=1.05423|133=1.05431|134=1000000|135=1000000|303=2|537=1|11325=0|10=009|
8=FIX.4.2|9=0229|35=S|49=FIXPROV|56=TRGT|34=1579444|52=20161230-11:05:38.598|115=TRGT|142=MRS|55=EUR/JPY|60=20161230-11:05:38.598|63=0|64=20170105|117=d39532s3843|131=1222|132=123.173|133=123.201|134=1000000|135=1000000|303=2|537=1|11325=0|10=047|
8=FIX.4.2|9=0228|35=S|49=FIXPROV|56=TRGT|34=1579445|52=20161230-11:05:38.638|115=TRGT|142=MRS|55=USD/DKK|60=20161230-11:05:38.638|63=0|64=20170103|117=d35241s3860|131=1258|132=7.05135|133=7.0526|134=1000000|135=1000000|303=2|537=1|11325=0|10=234|
8=FIX.4.2|9=0228|35=S|49=FIXPROV|56=TRGT|34=1579446|52=20161230-11:05:38.667|115=TRGT|142=MRS|55=USD/RUB|60=20161230-11:05:38.667|63=0|64=20170109|117=d9697s3863|131=1254|132=61.5066|133=61.6066|134=1000000|135=1000000|303=2|537=0|11325=0|10=026|
8=FIX.4.2|9=0227|35=S|49=FIXPROV|56=TRGT|34=1579447|52=20161230-11:05:38.698|115=TRGT|142=MRS|55=EUR/NOK|60=20161230-11:05:38.697|63=0|64=20170103|117=d13806s3831|131=1224|132=9.0806|133=9.0894|134=1000000|135=1000000|303=2|537=1|11325=0|10=218|
8=FIX.4.2|9=0229|35=S|49=FIXPROV|56=TRGT|34=1579448|52=20161230-11:05:38.726|115=TRGT|142=MRS|55=EUR/CAD|60=20161230-11:05:38.726|63=0|64=20170103|117=d33761s3846|131=1218|132=1.42058|133=1.42089|134=1000000|135=1000000|303=2|537=1|11325=0|10=016|
8=FIX.4.2|9=0229|35=S|49=FIXPROV|56=TRGT|34=1579449|52=20161230-11:05:38.748|115=TRGT|142=MRS|55=GBP/NZD|60=20161230-11:05:38.748|63=0|64=20170105|117=d35019s3855|131=1235|132=1.76705|133=1.76828|134=1000000|135=1000000|303=2|537=1|11325=0|10=055|
8=FIX.4.2|9=0229|35=S|49=FIXPROV|56=TRGT|34=1579450|52=20161230-11:05:38.752|115=TRGT|142=MRS|55=EUR/TRY|60=20161230-11:05:38.752|63=0|64=20170103|117=d34662s3838|131=1229|132=3.71427|133=3.72119|134=1000000|135=1000000|303=2|537=1|11325=0|10=069|
8=FIX.4.2|9=0229|35=S|49=FIXPROV|56=TRGT|34=1579451|52=20161230-11:05:38.753|115=TRGT|142=MRS|55=GBP/TRY|60=20161230-11:05:38.753|63=0|64=20170104|117=d34835s3870|131=1269|132=4.33297|133=4.34205|134=1000000|135=1000000|303=2|537=1|11325=0|10=055|
8=FIX.4.2|9=0229|35=S|49=FIXPROV|56=TRGT|34=1579452|52=20161230-11:05:38.764|115=TRGT|142=MRS|55=EUR/GBP|60=20161230-11:05:38.764|63=0|64=20170104|117=d34758s3841|131=1220|132=0.85732|133=0.85744|134=1000000|135=1000000|303=2|537=1|11325=0|10=037|
8=FIX.4.2|9=0229|35=S|49=FIXPROV|56=TRGT|34=1579453|52=20161230-11:05:38.839|115=TRGT|142=MRS|55=GBP/MXN|60=20161230-11:05:38.838|63=0|64=20170104|117=d31575s3867|131=1274|132=25.4681|133=25.4996|134=1000000|135=1000000|303=2|537=1|11325=0|10=069|
8=FIX.4.2|9=0229|35=S|49=FIXPROV|56=TRGT|34=1579454|52=20161230-11:05:38.839|115=TRGT|142=MRS|55=GBP/SGD|60=20161230-11:05:38.838|63=0|64=20170104|117=d33047s3878|131=1283|132=1.77543|133=1.77656|134=1000000|135=1000000|303=2|537=1|11325=0|10=045|
8=FIX.4.2|9=0229|35=S|49=FIXPROV|56=TRGT|34=1579455|52=20161230-11:05:38.861|115=TRGT|142=MRS|55=GBP/USD|60=20161230-11:05:38.859|63=0|64=20170104|117=d30368s3834|131=1237|132=1.22964|133=1.22993|134=1000000|135=1000000|303=2|537=1|11325=0|10=043|
8=FIX.4.2|9=0229|35=S|49=FIXPROV|56=TRGT|34=1579456|52=20161230-11:05:38.871|115=TRGT|142=MRS|55=EUR/ZAR|60=20161230-11:05:38.871|63=0|64=20170104|117=d31234s3839|131=1231|132=14.4144|133=14.4496|134=1000000|135=1000000|303=2|537=1|11325=0|10=047|
8=FIX.4.2|9=0229|35=S|49=FIXPROV|56=TRGT|34=1579457|52=20161230-11:05:38.883|115=TRGT|142=MRS|55=EUR/AUD|60=20161230-11:05:38.883|63=0|64=20170104|117=d35895s3845|131=1217|132=1.45857|133=1.45899|134=1000000|135=1000000|303=2|537=1|11325=0|10=073|
8=FIX.4.2|9=0229|35=S|49=FIXPROV|56=TRGT|34=1579458|52=20161230-11:05:38.903|115=TRGT|142=MRS|55=AUD/CAD|60=20161230-11:05:38.902|63=0|64=20170104|117=d28088s3879|131=1717|132=0.97372|133=0.97443|134=1000000|135=1000000|303=2|537=1|11325=0|10=020|
8=FIX.4.2|9=0229|35=S|49=FIXPROV|56=TRGT|34=1579459|52=20161230-11:05:38.903|115=TRGT|142=MRS|55=USD/CAD|60=20161230-11:05:38.902|63=0|64=20170103|117=d24636s3825|131=1239|132=1.34751|133=1.34774|134=1000000|135=1000000|303=2|537=1|11325=0|10=015|
8=FIX.4.2|9=0229|35=S|49=FIXPROV|56=TRGT|34=1579460|52=20161230-11:05:38.904|115=TRGT|142=MRS|55=GBP/JPY|60=20161230-11:05:38.902|63=0|64=20170105|117=d38444s3856|131=1261|132=143.641|133=143.704|134=1000000|135=1000000|303=2|537=1|11325=0|10=026|
8=FIX.4.2|9=0229|35=S|49=FIXPROV|56=TRGT|34=1579461|52=20161230-11:05:38.914|115=TRGT|142=MRS|55=EUR/SGD|60=20161230-11:05:38.913|63=0|64=20170104|117=d34195s3837|131=1228|132=1.52236|133=1.52314|134=1000000|135=1000000|303=2|537=1|11325=0|10=025|
8=FIX.4.2|9=0229|35=S|49=FIXPROV|56=TRGT|34=1579462|52=20161230-11:05:38.930|115=TRGT|142=MRS|55=EUR/CHF|60=20161230-11:05:38.929|63=0|64=20170104|117=d25695s3826|131=1219|132=1.07429|133=1.07467|134=1000000|135=1000000|303=2|537=1|11325=0|10=034|
8=FIX.4.2|9=0229|35=S|49=FIXPROV|56=TRGT|34=1579463|52=20161230-11:05:38.978|115=TRGT|142=MRS|55=GBP/CHF|60=20161230-11:05:38.978|63=0|64=20170104|117=d34694s3853|131=1233|132=1.25291|133=1.25348|134=1000000|135=1000000|303=2|537=1|11325=0|10=022|
8=FIX.4.2|9=0225|35=S|49=FIXPROV|56=TRGT|34=1579464|52=20161230-11:05:38.979|115=TRGT|142=MRS|55=ZAR/JPY|60=20161230-11:05:38.978|63=0|64=20170105|117=d20054s3866|131=1276|132=8.522|133=8.546|134=1000000|135=1000000|303=2|537=1|11325=0|10=132|
8=FIX.4.2|9=0229|35=S|49=FIXPROV|56=TRGT|34=1579465|52=20161230-11:05:38.999|115=TRGT|142=MRS|55=EUR/GBP|60=20161230-11:05:38.998|63=0|64=20170104|117=d34759s3841|131=1220|132=0.85736|133=0.85748|134=1000000|135=1000000|303=2|537=1|11325=0|10=069|
8=FIX.4.2|9=0229|35=S|49=FIXPROV|56=TRGT|34=1579466|52=20161230-11:05:39.055|115=TRGT|142=MRS|55=GBP/AUD|60=20161230-11:05:39.055|63=0|64=20170104|117=d34795s3852|131=1232|132=1.70098|133=1.70171|134=1000000|135=1000000|303=2|537=1|11325=0|10=007|
8=FIX.4.2|9=0227|35=S|49=FIXPROV|56=TRGT|34=1579467|52=20161230-11:05:39.093|115=TRGT|142=MRS|55=CAD/JPY|60=20161230-11:05:39.091|63=0|64=20170105|117=d31532s3872|131=1264|132=86.655|133=86.718|134=1000000|135=1000000|303=2|537=1|11325=0|10=188|
8=FIX.4.2|9=0229|35=S|49=FIXPROV|56=TRGT|34=1579468|52=20161230-11:05:39.093|115=TRGT|142=MRS|55=GBP/CAD|60=20161230-11:05:39.092|63=0|64=20170104|117=d31285s3858|131=1263|132=1.65657|133=1.65788|134=1000000|135=1000000|303=2|537=1|11325=0|10=018|
8=FIX.4.2|9=0228|35=S|49=FIXPROV|56=TRGT|34=1579469|52=20161230-11:05:39.114|115=TRGT|142=MRS|55=GBP/NOK|60=20161230-11:05:39.113|63=0|64=20170104|117=d34416s3854|131=1234|132=10.5902|133=10.603|134=1000000|135=1000000|303=2|537=1|11325=0|10=201|
8=FIX.4.2|9=0229|35=S|49=FIXPROV|56=TRGT|34=1579470|52=20161230-11:05:39.114|115=TRGT|142=MRS|55=GBP/SEK|60=20161230-11:05:39.113|63=0|64=20170104|117=d35692s3851|131=1236|132=11.1587|133=11.1671|134=1000000|135=1000000|303=2|537=1|11325=0|10=000|
8=FIX.4.2|9=0226|35=S|49=FIXPROV|56=TRGT|34=1579471|52=20161230-11:05:39.115|115=TRGT|142=MRS|55=EUR/ILS|60=20161230-11:05:39.114|63=0|64=20170103|117=d17860s3864|131=1255|132=4.039|133=4.0553|134=1000000|135=1000000|303=2|537=1|11325=0|10=130|
8=FIX.4.2|9=0227|35=S|49=FIXPROV|56=TRGT|34=1579472|52=20161230-11:05:39.118|115=TRGT|142=MRS|55=USD/SEK|60=20161230-11:05:39.115|63=0|64=20170103|117=d29313s3848|131=1245|132=9.0765|133=9.0809|134=1000000|135=1000000|303=2|537=1|11325=0|10=196|
8=FIX.4.2|9=0229|35=S|49=FIXPROV|56=TRGT|34=1579473|52=20161230-11:05:39.118|115=TRGT|142=MRS|55=EUR/NZD|60=20161230-11:05:39.115|63=0|64=20170105|117=d36674s3840|131=1225|132=1.51513|133=1.51594|134=1000000|135=1000000|303=2|537=1|11325=0|10=036|
8=FIX.4.2|9=0229|35=S|49=FIXPROV|56=TRGT|34=1579474|52=20161230-11:05:39.119|115=TRGT|142=MRS|55=EUR/MXN|60=20161230-11:05:39.115|63=0|64=20170104|117=d33486s3844|131=1223|132=21.8393|133=21.8608|134=1000000|135=1000000|303=2|537=1|11325=0|10=054|
8=FIX.4.2|9=0227|35=S|49=FIXPROV|56=TRGT|34=1579475|52=20161230-11:05:39.119|115=TRGT|142=MRS|55=USD/NOK|60=20161230-11:05:39.116|63=0|64=20170103|117=d27094s3850|131=1243|132=8.6132|133=8.6213|134=1000000|135=1000000|303=2|537=1|11325=0|10=188|
8=FIX.4.2|9=0226|35=S|49=FIXPROV|56=TRGT|34=1579476|52=20161230-11:05:39.119|115=TRGT|142=MRS|55=USD/PMRS|60=20161230-11:05:39.117|63=0|64=20170103|117=d20870s3847|131=1244|132=4.197|133=4.2021|134=1000000|135=1000000|303=2|537=1|11325=0|10=135|
8=FIX.4.2|9=0227|35=S|49=FIXPROV|56=TRGT|34=1579477|52=20161230-11:05:39.150|115=TRGT|142=MRS|55=NOK/JPY|60=20161230-11:05:39.150|63=0|64=20170105|117=d29376s3875|131=1267|132=13.549|133=13.565|134=1000000|135=1000000|303=2|537=1|11325=0|10=212|
8=FIX.4.2|9=0228|35=S|49=FIXPROV|56=TRGT|34=1579478|52=20161230-11:05:39.163|115=TRGT|142=MRS|55=USD/ZAR|60=20161230-11:05:39.163|63=0|64=20170104|117=d8760s3835|131=1248|132=13.6701|133=13.7036|134=1000000|135=1000000|303=2|537=1|11325=0|10=252|
8=FIX.4.2|9=0229|35=S|49=FIXPROV|56=TRGT|34=1579479|52=20161230-11:05:39.261|115=TRGT|142=MRS|55=EUR/USD|60=20161230-11:05:39.261|63=0|64=20170103|117=d35154s3820|131=1230|132=1.05424|133=1.05432|134=1000000|135=1000000|303=2|537=1|11325=0|10=017|
8=FIX.4.2|9=0229|35=S|49=FIXPROV|56=TRGT|34=1579480|52=20161230-11:05:39.262|115=TRGT|142=MRS|55=EUR/GBP|60=20161230-11:05:39.262|63=0|64=20170104|117=d34760s3841|131=1220|132=0.85739|133=0.85751|134=1000000|135=1000000|303=2|537=1|11325=0|10=024|
8=FIX.4.2|9=0227|35=S|49=FIXPROV|56=TRGT|34=1579481|52=20161230-11:05:39.263|115=TRGT|142=MRS|55=EUR/HKD|60=20161230-11:05:39.262|63=0|64=20170104|117=d30804s3862|131=1253|132=8.1763|133=8.1773|134=1000000|135=1000000|303=2|537=1|11325=0|10=179|
8=FIX.4.2|9=0228|35=S|49=FIXPROV|56=TRGT|34=1579482|52=20161230-11:05:39.269|115=TRGT|142=MRS|55=USD/CHF|60=20161230-11:05:39.268|63=0|64=20170104|117=d28022s3849|131=1240|132=1.0189|133=1.01917|134=1000000|135=1000000|303=2|537=1|11325=0|10=222|
8=FIX.4.2|9=0229|35=S|49=FIXPROV|56=TRGT|34=1579483|52=20161230-11:05:39.287|115=TRGT|142=MRS|55=EUR/CAD|60=20161230-11:05:39.285|63=0|64=20170103|117=d33762s3846|131=1218|132=1.42063|133=1.42094|134=1000000|135=1000000|303=2|537=1|11325=0|10=012|
8=FIX.4.2|9=0229|35=S|49=FIXPROV|56=TRGT|34=1579484|52=20161230-11:05:39.287|115=TRGT|142=MRS|55=USD/DKK|60=20161230-11:05:39.285|63=0|64=20170103|117=d35242s3860|131=1258|132=7.05118|133=7.05243|134=1000000|135=1000000|303=2|537=1|11325=0|10=033|
8=FIX.4.2|9=0229|35=S|49=FIXPROV|56=TRGT|34=1579485|52=20161230-11:05:39.295|115=TRGT|142=MRS|55=AUD/USD|60=20161230-11:05:39.295|63=0|64=20170104|117=d24750s3830|131=1216|132=0.72275|133=0.72291|134=1000000|135=1000000|303=2|537=1|11325=0|10=029|
8=FIX.4.2|9=0229|35=S|49=FIXPROV|56=TRGT|34=1579486|52=20161230-11:05:39.311|115=TRGT|142=MRS|55=EUR/USD|60=20161230-11:05:39.311|63=0|64=20170103|117=d35155s3820|131=1230|132=1.05428|133=1.05436|134=1000000|135=1000000|303=2|537=1|11325=0|10=016|
8=FIX.4.2|9=0228|35=S|49=FIXPROV|56=TRGT|34=1579487|52=20161230-11:05:39.331|115=TRGT|142=MRS|55=EUR/JPY|60=20161230-11:05:39.331|63=0|64=20170105|117=d39533s3843|131=1222|132=123.18|133=123.198|134=1000000|135=1000000|303=2|537=1|11325=0|10=247|
8=FIX.4.2|9=0229|35=S|49=FIXPROV|56=TRGT|34=1579488|52=20161230-11:05:39.341|115=TRGT|142=MRS|55=EUR/USD|60=20161230-11:05:39.341|63=0|64=20170103|117=d35156s3820|131=1230|132=1.05425|133=1.05433|134=1000000|135=1000000|303=2|537=1|11325=0|10=019|
8=FIX.4.2|9=0226|35=S|49=FIXPROV|56=TRGT|34=1579489|52=20161230-11:05:39.345|115=TRGT|142=MRS|55=EUR/RON|60=20161230-11:05:39.345|63=0|64=20170104|117=d5452s3859|131=1256|132=4.5405|133=4.5411|134=1000000|135=1000000|303=2|537=0|11325=0|10=156|
8=FIX.4.2|9=0229|35=S|49=FIXPROV|56=TRGT|34=1579490|52=20161230-11:05:39.368|115=TRGT|142=MRS|55=GBP/ZAR|60=20161230-11:05:39.368|63=0|64=20170104|117=d30091s3861|131=1259|132=16.8097|133=16.8541|134=1000000|135=1000000|303=2|537=1|11325=0|10=045|
8=FIX.4.2|9=0229|35=S|49=FIXPROV|56=TRGT|34=1579491|52=20161230-11:05:39.385|115=TRGT|142=MRS|55=EUR/USD|60=20161230-11:05:39.385|63=0|64=20170103|117=d35157s3820|131=1230|132=1.05429|133=1.05437|134=1000000|135=1000000|303=2|537=1|11325=0|10=038|
8=FIX.4.2|9=0227|35=S|49=FIXPROV|56=TRGT|34=1579492|52=20161230-11:05:39.386|115=TRGT|142=MRS|55=EUR/HKD|60=20161230-11:05:39.385|63=0|64=20170104|117=d30805s3862|131=1253|132=8.1766|133=8.1776|134=1000000|135=1000000|303=2|537=1|11325=0|10=200|
8=FIX.4.2|9=0229|35=S|49=FIXPROV|56=TRGT|34=1579493|52=20161230-11:05:39.429|115=TRGT|142=MRS|55=EUR/AUD|60=20161230-11:05:39.429|63=0|64=20170104|117=d35896s3845|131=1217|132=1.45863|133=1.45905|134=1000000|135=1000000|303=2|537=1|11325=0|10=053|
8=FIX.4.2|9=0226|35=S|49=FIXPROV|56=TRGT|34=1579494|52=20161230-11:05:39.505|115=TRGT|142=MRS|55=EUR/SEK|60=20161230-11:05:39.505|63=0|64=20170103|117=d19044s3827|131=1227|132=9.5696|133=9.574|134=1000000|135=1000000|303=2|537=1|11325=0|10=158|
8=FIX.4.2|9=0229|35=S|49=FIXPROV|56=TRGT|34=1579495|52=20161230-11:05:39.549|115=TRGT|142=MRS|55=USD/DKK|60=20161230-11:05:39.548|63=0|64=20170103|117=d35243s3860|131=1258|132=7.05098|133=7.05223|134=1000000|135=1000000|303=2|537=1|11325=0|10=044|
8=FIX.4.2|9=0229|35=S|49=FIXPROV|56=TRGT|34=1579496|52=20161230-11:05:39.601|115=TRGT|142=MRS|55=USD/CHF|60=20161230-11:05:39.601|63=0|64=20170104|117=d28023s3849|131=1240|132=1.01882|133=1.01915|134=1000000|135=1000000|303=2|537=1|11325=0|10=001|
8=FIX.4.2|9=0229|35=S|49=FIXPROV|56=TRGT|34=1579497|52=20161230-11:05:39.616|115=TRGT|142=MRS|55=GBP/CHF|60=20161230-11:05:39.616|63=0|64=20170104|117=d34695s3853|131=1233|132=1.25281|133=1.25346|134=1000000|135=1000000|303=2|537=1|11325=0|10=007|
8=FIX.4.2|9=0229|35=S|49=FIXPROV|56=TRGT|34=1579498|52=20161230-11:05:39.642|115=TRGT|142=MRS|55=EUR/SGD|60=20161230-11:05:39.642|63=0|64=20170104|117=d34196s3837|131=1228|132=1.52244|133=1.52322|134=1000000|135=1000000|303=2|537=1|11325=0|10=033|
8=FIX.4.2|9=0228|35=S|49=FIXPROV|56=TRGT|34=1579499|52=20161230-11:05:39.667|115=TRGT|142=MRS|55=USD/RUB|60=20161230-11:05:39.667|63=0|64=20170109|117=d9698s3863|131=1254|132=61.5112|133=61.6112|134=1000000|135=1000000|303=2|537=0|11325=0|10=021|
8=FIX.4.2|9=0229|35=S|49=FIXPROV|56=TRGT|34=1579500|52=20161230-11:05:39.690|115=TRGT|142=MRS|55=EUR/CHF|60=20161230-11:05:39.690|63=0|64=20170104|117=d25696s3826|131=1219|132=1.07434|133=1.07462|134=1000000|135=1000000|303=2|537=1|11325=0|10=019|
8=FIX.4.2|9=0227|35=S|49=FIXPROV|56=TRGT|34=1579501|52=20161230-11:05:39.749|115=TRGT|142=MRS|55=GBP/NZD|60=20161230-11:05:39.749|63=0|64=20170105|117=d35020s3855|131=1235|132=1.767|133=1.76823|134=1000000|135=1000000|303=2|537=1|11325=0|10=188|
8=FIX.4.2|9=0229|35=S|49=FIXPROV|56=TRGT|34=1579502|52=20161230-11:05:39.753|115=TRGT|142=MRS|55=EUR/TRY|60=20161230-11:05:39.753|63=0|64=20170103|117=d34663s3838|131=1229|132=3.71445|133=3.72137|134=1000000|135=1000000|303=2|537=1|11325=0|10=072|
8=FIX.4.2|9=0227|35=S|49=FIXPROV|56=TRGT|34=1579503|52=20161230-11:05:39.753|115=TRGT|142=MRS|55=TRY/JPY|60=20161230-11:05:39.753|63=0|64=20170105|117=d30838s3871|131=1270|132=33.077|133=33.149|134=1000000|135=1000000|303=2|537=1|11325=0|10=226|
8=FIX.4.2|9=0229|35=S|49=FIXPROV|56=TRGT|34=1579504|52=20161230-11:05:39.754|115=TRGT|142=MRS|55=GBP/TRY|60=20161230-11:05:39.753|63=0|64=20170104|117=d34836s3870|131=1269|132=4.33287|133=4.34195|134=1000000|135=1000000|303=2|537=1|11325=0|10=065|
8=FIX.4.2|9=0229|35=S|49=FIXPROV|56=TRGT|34=1579505|52=20161230-11:05:39.779|115=TRGT|142=MRS|55=EUR/CAD|60=20161230-11:05:39.778|63=0|64=20170103|117=d33763s3846|131=1218|132=1.42066|133=1.42097|134=1000000|135=1000000|303=2|537=1|11325=0|10=027|
8=FIX.4.2|9=0227|35=S|49=FIXPROV|56=TRGT|34=1579506|52=20161230-11:05:39.838|115=TRGT|142=MRS|55=AUD/JPY|60=20161230-11:05:39.838|63=0|64=20170105|117=d33890s3857|131=1262|132=84.403|133=84.463|134=1000000|135=1000000|303=2|537=1|11325=0|10=210|
8=FIX.4.2|9=0229|35=S|49=FIXPROV|56=TRGT|34=1579507|52=20161230-11:05:39.839|115=TRGT|142=MRS|55=GBP/MXN|60=20161230-11:05:39.839|63=0|64=20170104|117=d31576s3867|131=1274|132=25.4678|133=25.4993|134=1000000|135=1000000|303=2|537=1|11325=0|10=076|
8=FIX.4.2|9=0229|35=S|49=FIXPROV|56=TRGT|34=1579508|52=20161230-11:05:39.840|115=TRGT|142=MRS|55=GBP/SGD|60=20161230-11:05:39.839|63=0|64=20170104|117=d33048s3878|131=1283|132=1.77541|133=1.77654|134=1000000|135=1000000|303=2|537=1|11325=0|10=037|
8=FIX.4.2|9=0226|35=S|49=FIXPROV|56=TRGT|34=1579509|52=20161230-11:05:39.864|115=TRGT|142=MRS|55=SGD/JPY|60=20161230-11:05:39.864|63=0|64=20170105|117=d28919s3876|131=1284|132=80.857|133=80.92|134=1000000|135=1000000|303=2|537=1|11325=0|10=180|
8=FIX.4.2|9=0227|35=S|49=FIXPROV|56=TRGT|34=1579510|52=20161230-11:05:39.864|115=TRGT|142=MRS|55=MXN/JPY|60=20161230-11:05:39.864|63=0|64=20170105|117=d25264s3868|131=1275|132=5.6329|133=5.6399|134=1000000|135=1000000|303=2|537=1|11325=0|10=243|
8=FIX.4.2|9=0229|35=S|49=FIXPROV|56=TRGT|34=1579511|52=20161230-11:05:39.865|115=TRGT|142=MRS|55=USD/JPY|60=20161230-11:05:39.864|63=0|64=20170105|117=d36725s3819|131=1241|132=116.802|133=116.827|134=1000000|135=1000000|303=2|537=1|11325=0|10=059|
8=FIX.4.2|9=0228|35=S|49=FIXPROV|56=TRGT|34=1579512|52=20161230-11:05:39.871|115=TRGT|142=MRS|55=EUR/ZAR|60=20161230-11:05:39.871|63=0|64=20170104|117=d31235s3839|131=1231|132=14.415|133=14.4502|134=1000000|135=1000000|303=2|537=1|11325=0|10=235|
8=FIX.4.2|9=0228|35=S|49=FIXPROV|56=TRGT|34=1579513|52=20161230-11:05:39.871|115=TRGT|142=MRS|55=EUR/GBP|60=20161230-11:05:39.871|63=0|64=20170104|117=d34761s3841|131=1220|132=0.8574|133=0.85752|134=1000000|135=1000000|303=2|537=1|11325=0|10=234|
8=FIX.4.2|9=0229|35=S|49=FIXPROV|56=TRGT|34=1579514|52=20161230-11:05:39.902|115=TRGT|142=MRS|55=USD/CAD|60=20161230-11:05:39.902|63=0|64=20170103|117=d24637s3825|131=1239|132=1.34749|133=1.34772|134=1000000|135=1000000|303=2|537=1|11325=0|10=014|
8=FIX.4.2|9=0228|35=S|49=FIXPROV|56=TRGT|34=1579515|52=20161230-11:05:39.903|115=TRGT|142=MRS|55=GBP/JPY|60=20161230-11:05:39.902|63=0|64=20170105|117=d38445s3856|131=1261|132=143.64|133=143.703|134=1000000|135=1000000|303=2|537=1|11325=0|10=234|
8=FIX.4.2|9=0229|35=S|49=FIXPROV|56=TRGT|34=1579516|52=20161230-11:05:39.903|115=TRGT|142=MRS|55=AUD/CAD|60=20161230-11:05:39.902|63=0|64=20170104|117=d28089s3879|131=1717|132=0.97372|133=0.97443|134=1000000|135=1000000|303=2|537=1|11325=0|10=018|
8=FIX.4.2|9=0225|35=S|49=FIXPROV|56=TRGT|34=1579517|52=20161230-11:05:39.979|115=TRGT|142=MRS|55=ZAR/JPY|60=20161230-11:05:39.978|63=0|64=20170105|117=d20055s3866|131=1276|132=8.521|133=8.545|134=1000000|135=1000000|303=2|537=1|11325=0|10=132|
8=FIX.4.2|9=0227|35=S|49=FIXPROV|56=TRGT|34=1579518|52=20161230-11:05:40.001|115=TRGT|142=MRS|55=USD/SEK|60=20161230-11:05:40.001|63=0|64=20170103|117=d29314s3848|131=1245|132=9.0761|133=9.0805|134=1000000|135=1000000|303=2|537=1|11325=0|10=159|
8=FIX.4.2|9=0229|35=S|49=FIXPROV|56=TRGT|34=1579519|52=20161230-11:05:40.008|115=TRGT|142=MRS|55=EUR/JPY|60=20161230-11:05:40.007|63=0|64=20170105|117=d39534s3843|131=1222|132=123.177|133=123.195|134=1000000|135=1000000|303=2|537=1|11325=0|10=025|
8=FIX.4.2|9=0227|35=S|49=FIXPROV|56=TRGT|34=1579520|52=20161230-11:05:40.098|115=TRGT|142=MRS|55=CAD/JPY|60=20161230-11:05:40.091|63=0|64=20170105|117=d31533s3872|131=1264|132=86.653|133=86.716|134=1000000|135=1000000|303=2|537=1|11325=0|10=164|
8=FIX.4.2|9=0229|35=S|49=FIXPROV|56=TRGT|34=1579521|52=20161230-11:05:40.098|115=TRGT|142=MRS|55=GBP/CAD|60=20161230-11:05:40.092|63=0|64=20170104|117=d31286s3858|131=1263|132=1.65658|133=1.65789|134=1000000|135=1000000|303=2|537=1|11325=0|10=000|
8=FIX.4.2|9=0229|35=S|49=FIXPROV|56=TRGT|34=1579522|52=20161230-11:05:40.114|115=TRGT|142=MRS|55=GBP/SEK|60=20161230-11:05:40.114|63=0|64=20170104|117=d35693s3851|131=1236|132=11.1583|133=11.1667|134=1000000|135=1000000|303=2|537=1|11325=0|10=241|
8=FIX.4.2|9=0229|35=S|49=FIXPROV|56=TRGT|34=1579523|52=20161230-11:05:40.116|115=TRGT|142=MRS|55=GBP/NOK|60=20161230-11:05:40.114|63=0|64=20170104|117=d34417s3854|131=1234|132=10.5901|133=10.6029|134=1000000|135=1000000|303=2|537=1|11325=0|10=236|
8=FIX.4.2|9=0228|35=S|49=FIXPROV|56=TRGT|34=1579524|52=20161230-11:05:40.117|115=TRGT|142=MRS|55=EUR/NZD|60=20161230-11:05:40.115|63=0|64=20170105|117=d36675s3840|131=1225|132=1.5152|133=1.51601|134=1000000|135=1000000|303=2|537=1|11325=0|10=211|
8=FIX.4.2|9=0227|35=S|49=FIXPROV|56=TRGT|34=1579525|52=20161230-11:05:40.117|115=TRGT|142=MRS|55=EUR/ILS|60=20161230-11:05:40.115|63=0|64=20170103|117=d17861s3864|131=1255|132=4.0392|133=4.0555|134=1000000|135=1000000|303=2|537=1|11325=0|10=171|
8=FIX.4.2|9=0229|35=S|49=FIXPROV|56=TRGT|34=1579526|52=20161230-11:05:40.117|115=TRGT|142=MRS|55=CHF/JPY|60=20161230-11:05:40.115|63=0|64=20170105|117=d37843s3873|131=1265|132=114.424|133=114.885|134=1000000|135=1000000|303=2|537=1|11325=0|10=009|
8=FIX.4.2|9=0226|35=S|49=FIXPROV|56=TRGT|34=1579527|52=20161230-11:05:40.117|115=TRGT|142=MRS|55=USD/CZK|60=20161230-11:05:40.116|63=0|64=20170103|117=d14804s3877|131=1280|132=25.61|133=25.633|134=1000000|135=1000000|303=2|537=1|11325=0|10=117|
8=FIX.4.2|9=0226|35=S|49=FIXPROV|56=TRGT|34=1579528|52=20161230-11:05:40.117|115=TRGT|142=MRS|55=USD/HUF|60=20161230-11:05:40.116|63=0|64=20170103|117=d26766s3832|131=1250|132=294.3|133=294.58|134=1000000|135=1000000|303=2|537=1|11325=0|10=124|
8=FIX.4.2|9=0226|35=S|49=FIXPROV|56=TRGT|34=1579529|52=20161230-11:05:40.117|115=TRGT|142=MRS|55=USD/NOK|60=20161230-11:05:40.116|63=0|64=20170103|117=d27095s3850|131=1243|132=8.613|133=8.6211|134=1000000|135=1000000|303=2|537=1|11325=0|10=118|
8=FIX.4.2|9=0229|35=S|49=FIXPROV|56=TRGT|34=1579530|52=20161230-11:05:40.118|115=TRGT|142=MRS|55=EUR/MXN|60=20161230-11:05:40.116|63=0|64=20170104|117=d33487s3844|131=1223|132=21.8404|133=21.8619|134=1000000|135=1000000|303=2|537=1|11325=0|10=027|
8=FIX.4.2|9=0227|35=S|49=FIXPROV|56=TRGT|34=1579531|52=20161230-11:05:40.119|115=TRGT|142=MRS|55=USD/PMRS|60=20161230-11:05:40.117|63=0|64=20170103|117=d20871s3847|131=1244|132=4.1968|133=4.2019|134=1000000|135=1000000|303=2|537=1|11325=0|10=175|
8=FIX.4.2|9=0229|35=S|49=FIXPROV|56=TRGT|34=1579532|52=20161230-11:05:40.368|115=TRGT|142=MRS|55=GBP/ZAR|60=20161230-11:05:40.368|63=0|64=20170104|117=d30092s3861|131=1259|132=16.8099|133=16.8543|134=1000000|135=1000000|303=2|537=1|11325=0|10=031|
8=FIX.4.2|9=0227|35=S|49=FIXPROV|56=TRGT|34=1579533|52=20161230-11:05:40.385|115=TRGT|142=MRS|55=EUR/HKD|60=20161230-11:05:40.385|63=0|64=20170104|117=d30806s3862|131=1253|132=8.1766|133=8.1776|134=1000000|135=1000000|303=2|537=1|11325=0|10=180|
8=FIX.4.2|9=0227|35=S|49=FIXPROV|56=TRGT|34=1579534|52=20161230-11:05:40.506|115=TRGT|142=MRS|55=EUR/SEK|60=20161230-11:05:40.506|63=0|64=20170103|117=d19045s3827|131=1227|132=9.5693|133=9.5737|134=1000000|135=1000000|303=2|537=1|11325=0|10=192|
8=FIX.4.2|9=0229|35=S|49=FIXPROV|56=TRGT|34=1579535|52=20161230-11:05:40.549|115=TRGT|142=MRS|55=USD/DKK|60=20161230-11:05:40.549|63=0|64=20170103|117=d35244s3860|131=1258|132=7.05102|133=7.05227|134=1000000|135=1000000|303=2|537=1|11325=0|10=015|
8=FIX.4.2|9=0229|35=S|49=FIXPROV|56=TRGT|34=1579536|52=20161230-11:05:40.617|115=TRGT|142=MRS|55=GBP/CHF|60=20161230-11:05:40.617|63=0|64=20170104|117=d34696s3853|131=1233|132=1.25282|133=1.25347|134=1000000|135=1000000|303=2|537=1|11325=0|10=246|
8=FIX.4.2|9=0229|35=S|49=FIXPROV|56=TRGT|34=1579537|52=20161230-11:05:40.642|115=TRGT|142=MRS|55=EUR/SGD|60=20161230-11:05:40.642|63=0|64=20170104|117=d34197s3837|131=1228|132=1.52243|133=1.52321|134=1000000|135=1000000|303=2|537=1|11325=0|10=010|
8=FIX.4.2|9=0228|35=S|49=FIXPROV|56=TRGT|34=1579538|52=20161230-11:05:40.668|115=TRGT|142=MRS|55=USD/RUB|60=20161230-11:05:40.668|63=0|64=20170109|117=d9699s3863|131=1254|132=61.5108|133=61.6108|134=1000000|135=1000000|303=2|537=0|11325=0|10=012|
8=FIX.4.2|9=0229|35=S|49=FIXPROV|56=TRGT|34=1579539|52=20161230-11:05:40.690|115=TRGT|142=MRS|55=EUR/CHF|60=20161230-11:05:40.690|63=0|64=20170104|117=d25697s3826|131=1219|132=1.07429|133=1.07467|134=1000000|135=1000000|303=2|537=1|11325=0|10=025|
8=FIX.4.2|9=0229|35=S|49=FIXPROV|56=TRGT|34=1579540|52=20161230-11:05:40.751|115=TRGT|142=MRS|55=EUR/CAD|60=20161230-11:05:40.751|63=0|64=20170103|117=d33764s3846|131=1218|132=1.42064|133=1.42095|134=1000000|135=1000000|303=2|537=1|11325=0|10=244|
8=FIX.4.2|9=0227|35=S|49=FIXPROV|56=TRGT|34=1579541|52=20161230-11:05:40.754|115=TRGT|142=MRS|55=TRY/JPY|60=20161230-11:05:40.753|63=0|64=20170105|117=d30839s3871|131=1270|132=33.077|133=33.149|134=1000000|135=1000000|303=2|537=1|11325=0|10=214|
8=FIX.4.2|9=0228|35=S|49=FIXPROV|56=TRGT|34=1579542|52=20161230-11:05:40.754|115=TRGT|142=MRS|55=GBP/TRY|60=20161230-11:05:40.754|63=0|64=20170104|117=d34837s3870|131=1269|132=4.3329|133=4.34198|134=1000000|135=1000000|303=2|537=1|11325=0|10=001|
8=FIX.4.2|9=0228|35=S|49=FIXPROV|56=TRGT|34=1579543|52=20161230-11:05:40.840|115=TRGT|142=MRS|55=GBP/MXN|60=20161230-11:05:40.840|63=0|64=20170104|117=d31577s3867|131=1274|132=25.468|133=25.4995|134=1000000|135=1000000|303=2|537=1|11325=0|10=247|
8=FIX.4.2|9=0229|35=S|49=FIXPROV|56=TRGT|34=1579544|52=20161230-11:05:40.841|115=TRGT|142=MRS|55=GBP/SGD|60=20161230-11:05:40.840|63=0|64=20170104|117=d33049s3878|131=1283|132=1.77542|133=1.77655|134=1000000|135=1000000|303=2|537=1|11325=0|10=017|
8=FIX.4.2|9=0227|35=S|49=FIXPROV|56=TRGT|34=1579545|52=20161230-11:05:40.843|115=TRGT|142=MRS|55=NZD/JPY|60=20161230-11:05:40.843|63=0|64=20170105|117=d31051s3869|131=1268|132=81.253|133=81.306|134=1000000|135=1000000|303=2|537=1|11325=0|10=196|
8=FIX.4.2|9=0229|35=S|49=FIXPROV|56=TRGT|34=1579546|52=20161230-11:05:40.860|115=TRGT|142=MRS|55=GBP/USD|60=20161230-11:05:40.860|63=0|64=20170104|117=d30369s3834|131=1237|132=1.22965|133=1.22994|134=1000000|135=1000000|303=2|537=1|11325=0|10=024|
8=FIX.4.2|9=0227|35=S|49=FIXPROV|56=TRGT|34=1579547|52=20161230-11:05:40.865|115=TRGT|142=MRS|55=MXN/JPY|60=20161230-11:05:40.864|63=0|64=20170105|117=d25265s3868|131=1275|132=5.6328|133=5.6398|134=1000000|135=1000000|303=2|537=1|11325=0|10=237|
8=FIX.4.2|9=0227|35=S|49=FIXPROV|56=TRGT|34=1579548|52=20161230-11:05:40.865|115=TRGT|142=MRS|55=SGD/JPY|60=20161230-11:05:40.864|63=0|64=20170105|117=d28920s3876|131=1284|132=80.856|133=80.919|134=1000000|135=1000000|303=2|537=1|11325=0|10=216|
8=FIX.4.2|9=0229|35=S|49=FIXPROV|56=TRGT|34=1579549|52=20161230-11:05:40.865|115=TRGT|142=MRS|55=USD/JPY|60=20161230-11:05:40.865|63=0|64=20170105|117=d36726s3819|131=1241|132=116.801|133=116.826|134=1000000|135=1000000|303=2|537=1|11325=0|10=054|
8=FIX.4.2|9=0228|35=S|49=FIXPROV|56=TRGT|34=1579550|52=20161230-11:05:40.903|115=TRGT|142=MRS|55=USD/CAD|60=20161230-11:05:40.902|63=0|64=20170103|117=d24638s3825|131=1239|132=1.34747|133=1.3477|134=1000000|135=1000000|303=2|537=1|11325=0|10=203|
8=FIX.4.2|9=0228|35=S|49=FIXPROV|56=TRGT|34=1579551|52=20161230-11:05:40.903|115=TRGT|142=MRS|55=AUD/CAD|60=20161230-11:05:40.902|63=0|64=20170104|117=d28090s3879|131=1717|132=0.9737|133=0.97441|134=1000000|135=1000000|303=2|537=1|11325=0|10=196|
8=FIX.4.2|9=0226|35=S|49=FIXPROV|56=TRGT|34=1579552|52=20161230-11:05:41.001|115=TRGT|142=MRS|55=USD/SEK|60=20161230-11:05:41.001|63=0|64=20170103|117=d29315s3848|131=1245|132=9.076|133=9.0804|134=1000000|135=1000000|303=2|537=1|11325=0|10=109|
8=FIX.4.2|9=0229|35=S|49=FIXPROV|56=TRGT|34=1579553|52=20161230-11:05:41.007|115=TRGT|142=MRS|55=EUR/JPY|60=20161230-11:05:41.007|63=0|64=20170105|117=d39535s3843|131=1222|132=123.178|133=123.196|134=1000000|135=1000000|303=2|537=1|11325=0|10=027|
8=FIX.4.2|9=0227|35=S|49=FIXPROV|56=TRGT|34=1579554|52=20161230-11:05:41.091|115=TRGT|142=MRS|55=CAD/JPY|60=20161230-11:05:41.091|63=0|64=20170105|117=d31534s3872|131=1264|132=86.654|133=86.717|134=1000000|135=1000000|303=2|537=1|11325=0|10=169|
8=FIX.4.2|9=0229|35=S|49=FIXPROV|56=TRGT|34=1579555|52=20161230-11:05:41.092|115=TRGT|142=MRS|55=GBP/CAD|60=20161230-11:05:41.092|63=0|64=20170104|117=d31287s3858|131=1263|132=1.65656|133=1.65787|134=1000000|135=1000000|303=2|537=1|11325=0|10=000|
8=FIX.4.2|9=0229|35=S|49=FIXPROV|56=TRGT|34=1579556|52=20161230-11:05:41.116|115=TRGT|142=MRS|55=GBP/SEK|60=20161230-11:05:41.115|63=0|64=20170104|117=d35694s3851|131=1236|132=11.1582|133=11.1666|134=1000000|135=1000000|303=2|537=1|11325=0|10=252|
8=FIX.4.2|9=0229|35=S|49=FIXPROV|56=TRGT|34=1579557|52=20161230-11:05:41.116|115=TRGT|142=MRS|55=GBP/NOK|60=20161230-11:05:41.115|63=0|64=20170104|117=d34418s3854|131=1234|132=10.5897|133=10.6025|134=1000000|135=1000000|303=2|537=1|11325=0|10=001|
8=FIX.4.2|9=0229|35=S|49=FIXPROV|56=TRGT|34=1579558|52=20161230-11:05:41.116|115=TRGT|142=MRS|55=EUR/NZD|60=20161230-11:05:41.115|63=0|64=20170105|117=d36676s3840|131=1225|132=1.51516|133=1.51597|134=1000000|135=1000000|303=2|537=1|11325=0|10=032|
8=FIX.4.2|9=0227|35=S|49=FIXPROV|56=TRGT|34=1579559|52=20161230-11:05:41.116|115=TRGT|142=MRS|55=USD/CZK|60=20161230-11:05:41.116|63=0|64=20170103|117=d14805s3877|131=1280|132=25.609|133=25.632|134=1000000|135=1000000|303=2|537=1|11325=0|10=180|
8=FIX.4.2|9=0227|35=S|49=FIXPROV|56=TRGT|34=1579560|52=20161230-11:05:41.118|115=TRGT|142=MRS|55=SEK/JPY|60=20161230-11:05:41.116|63=0|64=20170105|117=d27653s3874|131=1266|132=12.866|133=12.876|134=1000000|135=1000000|303=2|537=1|11325=0|10=191|
8=FIX.4.2|9=0227|35=S|49=FIXPROV|56=TRGT|34=1579561|52=20161230-11:05:41.119|115=TRGT|142=MRS|55=USD/NOK|60=20161230-11:05:41.116|63=0|64=20170103|117=d27096s3850|131=1243|132=8.6128|133=8.6209|134=1000000|135=1000000|303=2|537=1|11325=0|10=182|
8=FIX.4.2|9=0229|35=S|49=FIXPROV|56=TRGT|34=1579562|52=20161230-11:05:41.119|115=TRGT|142=MRS|55=CHF/JPY|60=20161230-11:05:41.117|63=0|64=20170105|117=d37844s3873|131=1265|132=114.422|133=114.883|134=1000000|135=1000000|303=2|537=1|11325=0|10=012|
8=FIX.4.2|9=0228|35=S|49=FIXPROV|56=TRGT|34=1579563|52=20161230-11:05:41.119|115=TRGT|142=MRS|55=EUR/MXN|60=20161230-11:05:41.117|63=0|64=20170104|117=d33488s3844|131=1223|132=21.8405|133=21.862|134=1000000|135=1000000|303=2|537=1|11325=0|10=238|
8=FIX.4.2|9=0226|35=S|49=FIXPROV|56=TRGT|34=1579564|52=20161230-11:05:41.152|115=TRGT|142=MRS|55=NOK/JPY|60=20161230-11:05:41.151|63=0|64=20170105|117=d29377s3875|131=1267|132=13.55|133=13.566|134=1000000|135=1000000|303=2|537=1|11325=0|10=143|
8=FIX.4.2|9=0226|35=S|49=FIXPROV|56=TRGT|34=1579565|52=20161230-11:05:41.246|115=TRGT|142=MRS|55=EUR/RON|60=20161230-11:05:41.246|63=0|64=20170104|117=d5453s3859|131=1256|132=4.5405|133=4.5411|134=1000000|135=1000000|303=2|537=0|11325=0|10=138|
8=FIX.4.2|9=0229|35=S|49=FIXPROV|56=TRGT|34=1579566|52=20161230-11:05:41.369|115=TRGT|142=MRS|55=GBP/ZAR|60=20161230-11:05:41.369|63=0|64=20170104|117=d30093s3861|131=1259|132=16.8097|133=16.8541|134=1000000|135=1000000|303=2|537=1|11325=0|10=039|
8=FIX.4.2|9=0229|35=S|49=FIXPROV|56=TRGT|34=1579567|52=20161230-11:05:41.550|115=TRGT|142=MRS|55=USD/DKK|60=20161230-11:05:41.549|63=0|64=20170103|117=d35245s3860|131=1258|132=7.05098|133=7.05223|134=1000000|135=1000000|303=2|537=1|11325=0|10=025|
8=FIX.4.2|9=0229|35=S|49=FIXPROV|56=TRGT|34=1579568|52=20161230-11:05:41.573|115=TRGT|142=MRS|55=USD/TRY|60=20161230-11:05:41.573|63=0|64=20170103|117=d19157s3821|131=1247|132=3.52312|133=3.52974|134=1000000|135=1000000|303=2|537=1|11325=0|10=062|
8=FIX.4.2|9=0228|35=S|49=FIXPROV|56=TRGT|34=1579569|52=20161230-11:05:41.603|115=TRGT|142=MRS|55=USD/CHF|60=20161230-11:05:41.602|63=0|64=20170104|117=d28024s3849|131=1240|132=1.0188|133=1.01913|134=1000000|135=1000000|303=2|537=1|11325=0|10=195|
8=FIX.4.2|9=0229|35=S|49=FIXPROV|56=TRGT|34=1579570|52=20161230-11:05:41.618|115=TRGT|142=MRS|55=GBP/CHF|60=20161230-11:05:41.617|63=0|64=20170104|117=d34697s3853|131=1233|132=1.25277|133=1.25342|134=1000000|135=1000000|303=2|537=1|11325=0|10=247|
8=FIX.4.2|9=0229|35=S|49=FIXPROV|56=TRGT|34=1579571|52=20161230-11:05:41.643|115=TRGT|142=MRS|55=EUR/SGD|60=20161230-11:05:41.643|63=0|64=20170104|117=d34198s3837|131=1228|132=1.52244|133=1.52322|134=1000000|135=1000000|303=2|537=1|11325=0|10=015|
8=FIX.4.2|9=0228|35=S|49=FIXPROV|56=TRGT|34=1579572|52=20161230-11:05:41.670|115=TRGT|142=MRS|55=USD/RUB|60=20161230-11:05:41.669|63=0|64=20170109|117=d9700s3863|131=1254|132=61.5101|133=61.6101|134=1000000|135=1000000|303=2|537=0|11325=0|10=231|
8=FIX.4.2|9=0229|35=S|49=FIXPROV|56=TRGT|34=1579573|52=20161230-11:05:41.691|115=TRGT|142=MRS|55=EUR/CHF|60=20161230-11:05:41.690|63=0|64=20170104|117=d25698s3826|131=1219|132=1.07427|133=1.07465|134=1000000|135=1000000|303=2|537=1|11325=0|10=023|
8=FIX.4.2|9=0229|35=S|49=FIXPROV|56=TRGT|34=1579574|52=20161230-11:05:41.750|115=TRGT|142=MRS|55=GBP/NZD|60=20161230-11:05:41.750|63=0|64=20170105|117=d35021s3855|131=1235|132=1.76693|133=1.76816|134=1000000|135=1000000|303=2|537=1|11325=0|10=024|
8=FIX.4.2|9=0229|35=S|49=FIXPROV|56=TRGT|34=1579575|52=20161230-11:05:41.752|115=TRGT|142=MRS|55=EUR/CAD|60=20161230-11:05:41.752|63=0|64=20170103|117=d33765s3846|131=1218|132=1.42065|133=1.42096|134=1000000|135=1000000|303=2|537=1|11325=0|10=003|
8=FIX.4.2|9=0229|35=S|49=FIXPROV|56=TRGT|34=1579576|52=20161230-11:05:41.754|115=TRGT|142=MRS|55=EUR/TRY|60=20161230-11:05:41.754|63=0|64=20170103|117=d34664s3838|131=1229|132=3.71447|133=3.72139|134=1000000|135=1000000|303=2|537=1|11325=0|10=076|
8=FIX.4.2|9=0229|35=S|49=FIXPROV|56=TRGT|34=1579577|52=20161230-11:05:41.755|115=TRGT|142=MRS|55=GBP/TRY|60=20161230-11:05:41.754|63=0|64=20170104|117=d34838s3870|131=1269|132=4.33287|133=4.34195|134=1000000|135=1000000|303=2|537=1|11325=0|10=065|
8=FIX.4.2|9=0227|35=S|49=FIXPROV|56=TRGT|34=1579578|52=20161230-11:05:41.839|115=TRGT|142=MRS|55=AUD/JPY|60=20161230-11:05:41.839|63=0|64=20170105|117=d33891s3857|131=1262|132=84.403|133=84.463|134=1000000|135=1000000|303=2|537=1|11325=0|10=208|
8=FIX.4.2|9=0229|35=S|49=FIXPROV|56=TRGT|34=1579579|52=20161230-11:05:41.841|115=TRGT|142=MRS|55=GBP/MXN|60=20161230-11:05:41.840|63=0|64=20170104|117=d31578s3867|131=1274|132=25.4678|133=25.4993|134=1000000|135=1000000|303=2|537=1|11325=0|10=058|
8=FIX.4.2|9=0229|35=S|49=FIXPROV|56=TRGT|34=1579580|52=20161230-11:05:41.841|115=TRGT|142=MRS|55=GBP/SGD|60=20161230-11:05:41.841|63=0|64=20170104|117=d33050s3878|131=1283|132=1.77541|133=1.77654|134=1000000|135=1000000|303=2|537=1|11325=0|10=010|
8=FIX.4.2|9=0227|35=S|49=FIXPROV|56=TRGT|34=1579581|52=20161230-11:05:41.844|115=TRGT|142=MRS|55=NZD/JPY|60=20161230-11:05:41.844|63=0|64=20170105|117=d31052s3869|131=1268|132=81.256|133=81.309|134=1000000|135=1000000|303=2|537=1|11325=0|10=207|
8=FIX.4.2|9=0229|35=S|49=FIXPROV|56=TRGT|34=1579582|52=20161230-11:05:41.861|115=TRGT|142=MRS|55=GBP/USD|60=20161230-11:05:41.860|63=0|64=20170104|117=d30370s3834|131=1237|132=1.22964|133=1.22993|134=1000000|135=1000000|303=2|537=1|11325=0|10=017|
8=FIX.4.2|9=0229|35=S|49=FIXPROV|56=TRGT|34=1579583|52=20161230-11:05:41.870|115=TRGT|142=MRS|55=EUR/ZAR|60=20161230-11:05:41.870|63=0|64=20170104|117=d31236s3839|131=1231|132=14.4152|133=14.4504|134=1000000|135=1000000|303=2|537=1|11325=0|10=025|
8=FIX.4.2|9=0229|35=S|49=FIXPROV|56=TRGT|34=1579584|52=20161230-11:05:41.871|115=TRGT|142=MRS|55=EUR/GBP|60=20161230-11:05:41.871|63=0|64=20170104|117=d34762s3841|131=1220|132=0.85741|133=0.85753|134=1000000|135=1000000|303=2|537=1|11325=0|10=024|
8=FIX.4.2|9=0227|35=S|49=FIXPROV|56=TRGT|34=1579585|52=20161230-11:05:41.875|115=TRGT|142=MRS|55=USD/JPY|60=20161230-11:05:41.875|63=0|64=20170105|117=d36727s3819|131=1241|132=116.8|133=116.825|134=1000000|135=1000000|303=2|537=1|11325=0|10=215|
8=FIX.4.2|9=0229|35=S|49=FIXPROV|56=TRGT|34=1579586|52=20161230-11:05:41.901|115=TRGT|142=MRS|55=GBP/JPY|60=20161230-11:05:41.901|63=0|64=20170105|117=d38446s3856|131=1261|132=143.635|133=143.708|134=1000000|135=1000000|303=2|537=1|11325=0|10=028|
8=FIX.4.2|9=0228|35=S|49=FIXPROV|56=TRGT|34=1579587|52=20161230-11:05:41.903|115=TRGT|142=MRS|55=AUD/CAD|60=20161230-11:05:41.903|63=0|64=20170104|117=d28091s3879|131=1717|132=0.9737|133=0.97441|134=1000000|135=1000000|303=2|537=1|11325=0|10=209|
8=FIX.4.2|9=0226|35=S|49=FIXPROV|56=TRGT|34=1579588|52=20161230-11:05:41.906|115=TRGT|142=MRS|55=EUR/SEK|60=20161230-11:05:41.906|63=0|64=20170103|117=d19046s3827|131=1227|132=9.5696|133=9.574|134=1000000|135=1000000|303=2|537=1|11325=0|10=160|
8=FIX.4.2|9=0228|35=S|49=FIXPROV|56=TRGT|34=1579589|52=20161230-11:05:41.934|115=TRGT|142=MRS|55=EUR/USD|60=20161230-11:05:41.933|63=0|64=20170103|117=d35158s3820|131=1230|132=1.0543|133=1.05438|134=1000000|135=1000000|303=2|537=1|11325=0|10=232|
8=FIX.4.2|9=0227|35=S|49=FIXPROV|56=TRGT|34=1579590|52=20161230-11:05:42.002|115=TRGT|142=MRS|55=NZD/USD|60=20161230-11:05:42.002|63=0|64=20170105|117=d21167s3829|131=1238|132=0.69565|133=0.696|134=1000000|135=1000000|303=2|537=1|11325=0|10=182|
8=FIX.4.2|9=0227|35=S|49=FIXPROV|56=TRGT|34=1579591|52=20161230-11:05:42.002|115=TRGT|142=MRS|55=USD/SEK|60=20161230-11:05:42.002|63=0|64=20170103|117=d29316s3848|131=1245|132=9.0762|133=9.0806|134=1000000|135=1000000|303=2|537=1|11325=0|10=170|
8=FIX.4.2|9=0229|35=S|49=FIXPROV|56=TRGT|34=1579592|52=20161230-11:05:42.008|115=TRGT|142=MRS|55=EUR/JPY|60=20161230-11:05:42.008|63=0|64=20170105|117=d39536s3843|131=1222|132=123.178|133=123.196|134=1000000|135=1000000|303=2|537=1|11325=0|10=035|
8=FIX.4.2|9=0229|35=S|49=FIXPROV|56=TRGT|34=1579593|52=20161230-11:05:42.057|115=TRGT|142=MRS|55=GBP/AUD|60=20161230-11:05:42.057|63=0|64=20170104|117=d34796s3852|131=1232|132=1.70096|133=1.70181|134=1000000|135=1000000|303=2|537=1|11325=0|10=000|
8=FIX.4.2|9=0227|35=S|49=FIXPROV|56=TRGT|34=1579594|52=20161230-11:05:42.092|115=TRGT|142=MRS|55=CAD/JPY|60=20161230-11:05:42.092|63=0|64=20170105|117=d31535s3872|131=1264|132=86.654|133=86.717|134=1000000|135=1000000|303=2|537=1|11325=0|10=178|
8=FIX.4.2|9=0229|35=S|49=FIXPROV|56=TRGT|34=1579595|52=20161230-11:05:42.093|115=TRGT|142=MRS|55=GBP/CAD|60=20161230-11:05:42.093|63=0|64=20170104|117=d31288s3858|131=1263|132=1.65654|133=1.65797|134=1000000|135=1000000|303=2|537=1|11325=0|10=008|
8=FIX.4.2|9=0229|35=S|49=FIXPROV|56=TRGT|34=1579596|52=20161230-11:05:42.118|115=TRGT|142=MRS|55=EUR/NZD|60=20161230-11:05:42.116|63=0|64=20170105|117=d36677s3840|131=1225|132=1.51517|133=1.51598|134=1000000|135=1000000|303=2|537=1|11325=0|10=042|
8=FIX.4.2|9=0229|35=S|49=FIXPROV|56=TRGT|34=1579597|52=20161230-11:05:42.118|115=TRGT|142=MRS|55=GBP/SEK|60=20161230-11:05:42.116|63=0|64=20170104|117=d35695s3851|131=1236|132=11.1583|133=11.1676|134=1000000|135=1000000|303=2|537=1|11325=0|10=009|
8=FIX.4.2|9=0229|35=S|49=FIXPROV|56=TRGT|34=1579598|52=20161230-11:05:42.118|115=TRGT|142=MRS|55=GBP/NOK|60=20161230-11:05:42.116|63=0|64=20170104|117=d34419s3854|131=1234|132=10.5895|133=10.6031|134=1000000|135=1000000|303=2|537=1|11325=0|10=007|
8=FIX.4.2|9=0227|35=S|49=FIXPROV|56=TRGT|34=1579599|52=20161230-11:05:42.119|115=TRGT|142=MRS|55=SEK/JPY|60=20161230-11:05:42.116|63=0|64=20170105|117=d27654s3874|131=1266|132=12.865|133=12.875|134=1000000|135=1000000|303=2|537=1|11325=0|10=205|
8=FIX.4.2|9=0227|35=S|49=FIXPROV|56=TRGT|34=1579600|52=20161230-11:05:42.119|115=TRGT|142=MRS|55=USD/NOK|60=20161230-11:05:42.117|63=0|64=20170103|117=d27097s3850|131=1243|132=8.6127|133=8.6208|134=1000000|135=1000000|303=2|537=1|11325=0|10=178|
8=FIX.4.2|9=0229|35=S|49=FIXPROV|56=TRGT|34=1579601|52=20161230-11:05:42.119|115=TRGT|142=MRS|55=CHF/JPY|60=20161230-11:05:42.117|63=0|64=20170105|117=d37845s3873|131=1265|132=114.425|133=114.886|134=1000000|135=1000000|303=2|537=1|11325=0|10=015|
8=FIX.4.2|9=0229|35=S|49=FIXPROV|56=TRGT|34=1579602|52=20161230-11:05:42.119|115=TRGT|142=MRS|55=EUR/MXN|60=20161230-11:05:42.118|63=0|64=20170104|117=d33489s3844|131=1223|132=21.8406|133=21.8621|134=1000000|135=1000000|303=2|537=1|11325=0|10=031|
8=FIX.4.2|9=0227|35=S|49=FIXPROV|56=TRGT|34=1579603|52=20161230-11:05:42.123|115=TRGT|142=MRS|55=USD/PMRS|60=20161230-11:05:42.118|63=0|64=20170103|117=d20872s3847|131=1244|132=4.1967|133=4.2018|134=1000000|135=1000000|303=2|537=1|11325=0|10=174|
8=FIX.4.2|9=0229|35=S|49=FIXPROV|56=TRGT|34=1579604|52=20161230-11:05:42.138|115=TRGT|142=MRS|55=USD/CAD|60=20161230-11:05:42.137|63=0|64=20170103|117=d24639s3825|131=1239|132=1.34745|133=1.34768|134=1000000|135=1000000|303=2|537=1|11325=0|10=006|
8=FIX.4.2|9=0227|35=S|49=FIXPROV|56=TRGT|34=1579605|52=20161230-11:05:42.152|115=TRGT|142=MRS|55=NOK/JPY|60=20161230-11:05:42.152|63=0|64=20170105|117=d29378s3875|131=1267|132=13.549|133=13.565|134=1000000|135=1000000|303=2|537=1|11325=0|10=199|
8=FIX.4.2|9=0229|35=S|49=FIXPROV|56=TRGT|34=1579606|52=20161230-11:05:42.173|115=TRGT|142=MRS|55=EUR/CHF|60=20161230-11:05:42.173|63=0|64=20170104|117=d25699s3826|131=1219|132=1.07436|133=1.07464|134=1000000|135=1000000|303=2|537=1|11325=0|10=013|
8=FIX.4.2|9=0229|35=S|49=FIXPROV|56=TRGT|34=1579607|52=20161230-11:05:42.201|115=TRGT|142=MRS|55=EUR/GBP|60=20161230-11:05:42.201|63=0|64=20170104|117=d34763s3841|131=1220|132=0.85737|133=0.85749|134=1000000|135=1000000|303=2|537=1|11325=0|10=007|
8=FIX.4.2|9=0227|35=S|49=FIXPROV|56=TRGT|34=1579608|52=20161230-11:05:42.307|115=TRGT|142=MRS|55=EUR/HKD|60=20161230-11:05:42.307|63=0|64=20170104|117=d30807s3862|131=1253|132=8.1767|133=8.1777|134=1000000|135=1000000|303=2|537=1|11325=0|10=178|
8=FIX.4.2|9=0229|35=S|49=FIXPROV|56=TRGT|34=1579609|52=20161230-11:05:42.370|115=TRGT|142=MRS|55=GBP/ZAR|60=20161230-11:05:42.370|63=0|64=20170104|117=d30094s3861|131=1259|132=16.8093|133=16.8549|134=1000000|135=1000000|303=2|537=1|11325=0|10=028|
8=FIX.4.2|9=0229|35=S|49=FIXPROV|56=TRGT|34=1579610|52=20161230-11:05:42.431|115=TRGT|142=MRS|55=EUR/AUD|60=20161230-11:05:42.431|63=0|64=20170104|117=d35897s3845|131=1217|132=1.45864|133=1.45906|134=1000000|135=1000000|303=2|537=1|11325=0|10=021|
8=FIX.4.2|9=0229|35=S|49=FIXPROV|56=TRGT|34=1579611|52=20161230-11:05:42.476|115=TRGT|142=MRS|55=EUR/GBP|60=20161230-11:05:42.475|63=0|64=20170104|117=d34764s3841|131=1220|132=0.85741|133=0.85753|134=1000000|135=1000000|303=2|537=1|11325=0|10=020|
8=FIX.4.2|9=0228|35=S|49=FIXPROV|56=TRGT|34=1579612|52=20161230-11:05:42.550|115=TRGT|142=MRS|55=USD/DKK|60=20161230-11:05:42.550|63=0|64=20170103|117=d35246s3860|131=1258|132=7.05095|133=7.0522|134=1000000|135=1000000|303=2|537=1|11325=0|10=212|
8=FIX.4.2|9=0229|35=S|49=FIXPROV|56=TRGT|34=1579613|52=20161230-11:05:42.575|115=TRGT|142=MRS|55=USD/TRY|60=20161230-11:05:42.574|63=0|64=20170103|117=d19158s3821|131=1247|132=3.52302|133=3.52964|134=1000000|135=1000000|303=2|537=1|11325=0|10=057|
8=FIX.4.2|9=0229|35=S|49=FIXPROV|56=TRGT|34=1579614|52=20161230-11:05:42.604|115=TRGT|142=MRS|55=USD/CHF|60=20161230-11:05:42.603|63=0|64=20170104|117=d28025s3849|131=1240|132=1.01879|133=1.01912|134=1000000|135=1000000|303=2|537=1|11325=0|10=247|
8=FIX.4.2|9=0229|35=S|49=FIXPROV|56=TRGT|34=1579615|52=20161230-11:05:42.618|115=TRGT|142=MRS|55=GBP/CHF|60=20161230-11:05:42.618|63=0|64=20170104|117=d34698s3853|131=1233|132=1.25273|133=1.25347|134=1000000|135=1000000|303=2|537=1|11325=0|10=252|
8=FIX.4.2|9=0229|35=S|49=FIXPROV|56=TRGT|34=1579616|52=20161230-11:05:42.644|115=TRGT|142=MRS|55=EUR/SGD|60=20161230-11:05:42.643|63=0|64=20170104|117=d34199s3837|131=1228|132=1.52245|133=1.52323|134=1000000|135=1000000|303=2|537=1|11325=0|10=021|
8=FIX.4.2|9=0228|35=S|49=FIXPROV|56=TRGT|34=1579617|52=20161230-11:05:42.671|115=TRGT|142=MRS|55=USD/RUB|60=20161230-11:05:42.669|63=0|64=20170109|117=d9701s3863|131=1254|132=61.5076|133=61.6076|134=1000000|135=1000000|303=2|537=0|11325=0|10=001|
8=FIX.4.2|9=0227|35=S|49=FIXPROV|56=TRGT|34=1579618|52=20161230-11:05:42.701|115=TRGT|142=MRS|55=EUR/NOK|60=20161230-11:05:42.700|63=0|64=20170103|117=d13807s3831|131=1224|132=9.0811|133=9.0899|134=1000000|135=1000000|303=2|537=1|11325=0|10=180|
8=FIX.4.2|9=0229|35=S|49=FIXPROV|56=TRGT|34=1579619|52=20161230-11:05:42.752|115=TRGT|142=MRS|55=GBP/NZD|60=20161230-11:05:42.751|63=0|64=20170105|117=d35022s3855|131=1235|132=1.76688|133=1.76824|134=1000000|135=1000000|303=2|537=1|11325=0|10=033|
8=FIX.4.2|9=0229|35=S|49=FIXPROV|56=TRGT|34=1579620|52=20161230-11:05:42.755|115=TRGT|142=MRS|55=GBP/TRY|60=20161230-11:05:42.754|63=0|64=20170104|117=d34839s3870|131=1269|132=4.33274|133=4.34214|134=1000000|135=1000000|303=2|537=1|11325=0|10=045|
8=FIX.4.2|9=0228|35=S|49=FIXPROV|56=TRGT|34=1579621|52=20161230-11:05:42.756|115=TRGT|142=MRS|55=EUR/TRY|60=20161230-11:05:42.754|63=0|64=20170103|117=d34665s3838|131=1229|132=3.71448|133=3.7214|134=1000000|135=1000000|303=2|537=1|11325=0|10=016|
8=FIX.4.2|9=0227|35=S|49=FIXPROV|56=TRGT|34=1579622|52=20161230-11:05:42.842|115=TRGT|142=MRS|55=AUD/JPY|60=20161230-11:05:42.840|63=0|64=20170105|117=d33892s3857|131=1262|132=84.402|133=84.462|134=1000000|135=1000000|303=2|537=1|11325=0|10=185|
8=FIX.4.2|9=0229|35=S|49=FIXPROV|56=TRGT|34=1579623|52=20161230-11:05:42.843|115=TRGT|142=MRS|55=GBP/MXN|60=20161230-11:05:42.840|63=0|64=20170104|117=d31579s3867|131=1274|132=25.4671|133=25.5005|134=1000000|135=1000000|303=2|537=1|11325=0|10=031|
8=FIX.4.2|9=0229|35=S|49=FIXPROV|56=TRGT|34=1579624|52=20161230-11:05:42.843|115=TRGT|142=MRS|55=GBP/SGD|60=20161230-11:05:42.842|63=0|64=20170104|117=d33051s3878|131=1283|132=1.77536|133=1.77662|134=1000000|135=1000000|303=2|537=1|11325=0|10=018|
8=FIX.4.2|9=0227|35=S|49=FIXPROV|56=TRGT|34=1579625|52=20161230-11:05:42.845|115=TRGT|142=MRS|55=NZD/JPY|60=20161230-11:05:42.844|63=0|64=20170105|117=d31053s3869|131=1268|132=81.255|133=81.308|134=1000000|135=1000000|303=2|537=1|11325=0|10=208|
8=FIX.4.2|9=0228|35=S|49=FIXPROV|56=TRGT|34=1579626|52=20161230-11:05:42.861|115=TRGT|142=MRS|55=GBP/USD|60=20161230-11:05:42.861|63=0|64=20170104|117=d30371s3834|131=1237|132=1.2296|133=1.22998|134=1000000|135=1000000|303=2|537=1|11325=0|10=228|
8=FIX.4.2|9=0229|35=S|49=FIXPROV|56=TRGT|34=1579627|52=20161230-11:05:42.902|115=TRGT|142=MRS|55=GBP/JPY|60=20161230-11:05:42.901|63=0|64=20170105|117=d38447s3856|131=1261|132=143.634|133=143.707|134=1000000|135=1000000|303=2|537=1|11325=0|10=026|
8=FIX.4.2|9=0228|35=S|49=FIXPROV|56=TRGT|34=1579628|52=20161230-11:05:42.904|115=TRGT|142=MRS|55=AUD/CAD|60=20161230-11:05:42.903|63=0|64=20170104|117=d28092s3879|131=1717|132=0.97369|133=0.9744|134=1000000|135=1000000|303=2|537=1|11325=0|10=216|
8=FIX.4.2|9=0228|35=S|49=FIXPROV|56=TRGT|34=1579629|52=20161230-11:05:42.911|115=TRGT|142=MRS|55=EUR/GBP|60=20161230-11:05:42.911|63=0|64=20170104|117=d34765s3841|131=1220|132=0.85738|133=0.8575|134=1000000|135=1000000|303=2|537=1|11325=0|10=229|
8=FIX.4.2|9=0226|35=S|49=FIXPROV|56=TRGT|34=1579630|52=20161230-11:05:43.001|115=TRGT|142=MRS|55=USD/SEK|60=20161230-11:05:43.001|63=0|64=20170103|117=d29317s3848|131=1245|132=9.076|133=9.0804|134=1000000|135=1000000|303=2|537=1|11325=0|10=112|
8=FIX.4.2|9=0229|35=S|49=FIXPROV|56=TRGT|34=1579631|52=20161230-11:05:43.057|115=TRGT|142=MRS|55=GBP/AUD|60=20161230-11:05:43.057|63=0|64=20170104|117=d34797s3852|131=1232|132=1.70092|133=1.70177|134=1000000|135=1000000|303=2|537=1|11325=0|10=253|
8=FIX.4.2|9=0227|35=S|49=FIXPROV|56=TRGT|34=1579632|52=20161230-11:05:43.093|115=TRGT|142=MRS|55=CAD/JPY|60=20161230-11:05:43.093|63=0|64=20170105|117=d31536s3872|131=1264|132=86.655|133=86.718|134=1000000|135=1000000|303=2|537=1|11325=0|10=178|
8=FIX.4.2|9=0229|35=S|49=FIXPROV|56=TRGT|34=1579633|52=20161230-11:05:43.093|115=TRGT|142=MRS|55=GBP/CAD|60=20161230-11:05:43.093|63=0|64=20170104|117=d31289s3858|131=1263|132=1.65649|133=1.65792|134=1000000|135=1000000|303=2|537=1|11325=0|10=003|
8=FIX.4.2|9=0227|35=S|49=FIXPROV|56=TRGT|34=1579634|52=20161230-11:05:43.117|115=TRGT|142=MRS|55=USD/NOK|60=20161230-11:05:43.117|63=0|64=20170103|117=d27098s3850|131=1243|132=8.6132|133=8.6213|134=1000000|135=1000000|303=2|537=1|11325=0|10=178|
8=FIX.4.2|9=0228|35=S|49=FIXPROV|56=TRGT|34=1579635|52=20161230-11:05:43.118|115=TRGT|142=MRS|55=GBP/SEK|60=20161230-11:05:43.117|63=0|64=20170104|117=d35696s3851|131=1236|132=11.1577|133=11.167|134=1000000|135=1000000|303=2|537=1|11325=0|10=210|
8=FIX.4.2|9=0229|35=S|49=FIXPROV|56=TRGT|34=1579636|52=20161230-11:05:43.118|115=TRGT|142=MRS|55=GBP/NOK|60=20161230-11:05:43.117|63=0|64=20170104|117=d34420s3854|131=1234|132=10.5899|133=10.6035|134=1000000|135=1000000|303=2|537=1|11325=0|10=003|
8=FIX.4.2|9=0227|35=S|49=FIXPROV|56=TRGT|34=1579637|52=20161230-11:05:43.118|115=TRGT|142=MRS|55=SEK/JPY|60=20161230-11:05:43.117|63=0|64=20170105|117=d27655s3874|131=1266|132=12.866|133=12.876|134=1000000|135=1000000|303=2|537=1|11325=0|10=203|
8=FIX.4.2|9=0229|35=S|49=FIXPROV|56=TRGT|34=1579638|52=20161230-11:05:43.138|115=TRGT|142=MRS|55=USD/CAD|60=20161230-11:05:43.138|63=0|64=20170103|117=d24640s3825|131=1239|132=1.34746|133=1.34769|134=1000000|135=1000000|303=2|537=1|11325=0|10=010|
8=FIX.4.2|9=0229|35=S|49=FIXPROV|56=TRGT|34=1579639|52=20161230-11:05:43.141|115=TRGT|142=MRS|55=EUR/CHF|60=20161230-11:05:43.141|63=0|64=20170104|117=d25700s3826|131=1219|132=1.07434|133=1.07462|134=1000000|135=1000000|303=2|537=1|11325=0|10=246|
8=FIX.4.2|9=0226|35=S|49=FIXPROV|56=TRGT|34=1579640|52=20161230-11:05:43.147|115=TRGT|142=MRS|55=EUR/RON|60=20161230-11:05:43.147|63=0|64=20170104|117=d5454s3859|131=1256|132=4.5405|133=4.5411|134=1000000|135=1000000|303=2|537=0|11325=0|10=137|
8=FIX.4.2|9=0227|35=S|49=FIXPROV|56=TRGT|34=1579641|52=20161230-11:05:43.254|115=TRGT|142=MRS|55=EUR/HUF|60=20161230-11:05:43.251|63=0|64=20170103|117=d21199s3842|131=1221|132=310.27|133=310.57|134=1000000|135=1000000|303=2|537=1|11325=0|10=154|
8=FIX.4.2|9=0227|35=S|49=FIXPROV|56=TRGT|34=1579642|52=20161230-11:05:43.254|115=TRGT|142=MRS|55=USD/HUF|60=20161230-11:05:43.251|63=0|64=20170103|117=d26767s3832|131=1250|132=294.29|133=294.57|134=1000000|135=1000000|303=2|537=1|11325=0|10=186|
8=FIX.4.2|9=0229|35=S|49=FIXPROV|56=TRGT|34=1579643|52=20161230-11:05:43.431|115=TRGT|142=MRS|55=EUR/AUD|60=20161230-11:05:43.431|63=0|64=20170104|117=d35898s3845|131=1217|132=1.45864|133=1.45906|134=1000000|135=1000000|303=2|537=1|11325=0|10=030|
8=FIX.4.2|9=0229|35=S|49=FIXPROV|56=TRGT|34=1579644|52=20161230-11:05:43.619|115=TRGT|142=MRS|55=GBP/CHF|60=20161230-11:05:43.619|63=0|64=20170104|117=d34699s3853|131=1233|132=1.25274|133=1.25348|134=1000000|135=1000000|303=2|537=1|11325=0|10=005|
8=FIX.4.2|9=0229|35=S|49=FIXPROV|56=TRGT|34=1579645|52=20161230-11:05:43.645|115=TRGT|142=MRS|55=EUR/SGD|60=20161230-11:05:43.644|63=0|64=20170104|117=d34200s3837|131=1228|132=1.52245|133=1.52323|134=1000000|135=1000000|303=2|537=1|11325=0|10=010|
8=FIX.4.2|9=0226|35=S|49=FIXPROV|56=TRGT|34=1579646|52=20161230-11:05:43.668|115=TRGT|142=MRS|55=USD/RUB|60=20161230-11:05:43.667|63=0|64=20170109|117=d9702s3863|131=1254|132=61.511|133=61.611|134=1000000|135=1000000|303=2|537=0|11325=0|10=146|
8=FIX.4.2|9=0229|35=S|49=FIXPROV|56=TRGT|34=1579647|52=20161230-11:05:43.752|115=TRGT|142=MRS|55=GBP/NZD|60=20161230-11:05:43.751|63=0|64=20170105|117=d35023s3855|131=1235|132=1.76689|133=1.76825|134=1000000|135=1000000|303=2|537=1|11325=0|10=039|
8=FIX.4.2|9=0229|35=S|49=FIXPROV|56=TRGT|34=1579648|52=20161230-11:05:43.755|115=TRGT|142=MRS|55=GBP/TRY|60=20161230-11:05:43.755|63=0|64=20170104|117=d34840s3870|131=1269|132=4.33276|133=4.34216|134=1000000|135=1000000|303=2|537=1|11325=0|10=054|
8=FIX.4.2|9=0227|35=S|49=FIXPROV|56=TRGT|34=1579649|52=20161230-11:05:43.841|115=TRGT|142=MRS|55=AUD/JPY|60=20161230-11:05:43.840|63=0|64=20170105|117=d33893s3857|131=1262|132=84.402|133=84.462|134=1000000|135=1000000|303=2|537=1|11325=0|10=196|
8=FIX.4.2|9=0229|35=S|49=FIXPROV|56=TRGT|34=1579650|52=20161230-11:05:43.842|115=TRGT|142=MRS|55=GBP/MXN|60=20161230-11:05:43.841|63=0|64=20170104|117=d31580s3867|131=1274|132=25.4672|133=25.5006|134=1000000|135=1000000|303=2|537=1|11325=0|10=027|